{
  "contractName": "Token",
  "abi": [
    {
      "inputs": [
        {
          "internalType": "string",
          "name": "name",
          "type": "string"
        },
        {
          "internalType": "string",
          "name": "symbol",
          "type": "string"
        }
      ],
      "stateMutability": "nonpayable",
      "type": "constructor"
    },
    {
      "anonymous": false,
      "inputs": [
        {
          "indexed": true,
          "internalType": "address",
          "name": "owner",
          "type": "address"
        },
        {
          "indexed": true,
          "internalType": "address",
          "name": "approved",
          "type": "address"
        },
        {
          "indexed": true,
          "internalType": "uint256",
          "name": "tokenId",
          "type": "uint256"
        }
      ],
      "name": "Approval",
      "type": "event"
    },
    {
      "anonymous": false,
      "inputs": [
        {
          "indexed": true,
          "internalType": "address",
          "name": "owner",
          "type": "address"
        },
        {
          "indexed": true,
          "internalType": "address",
          "name": "operator",
          "type": "address"
        },
        {
          "indexed": false,
          "internalType": "bool",
          "name": "approved",
          "type": "bool"
        }
      ],
      "name": "ApprovalForAll",
      "type": "event"
    },
    {
      "anonymous": false,
      "inputs": [
        {
          "indexed": true,
          "internalType": "address",
          "name": "previousOwner",
          "type": "address"
        },
        {
          "indexed": true,
          "internalType": "address",
          "name": "newOwner",
          "type": "address"
        }
      ],
      "name": "OwnershipTransferred",
      "type": "event"
    },
    {
      "anonymous": false,
      "inputs": [
        {
          "indexed": true,
          "internalType": "address",
          "name": "from",
          "type": "address"
        },
        {
          "indexed": true,
          "internalType": "address",
          "name": "to",
          "type": "address"
        },
        {
          "indexed": true,
          "internalType": "uint256",
          "name": "tokenId",
          "type": "uint256"
        }
      ],
      "name": "Transfer",
      "type": "event"
    },
    {
      "inputs": [
        {
          "internalType": "address",
          "name": "to",
          "type": "address"
        },
        {
          "internalType": "uint256",
          "name": "tokenId",
          "type": "uint256"
        }
      ],
      "name": "approve",
      "outputs": [],
      "stateMutability": "nonpayable",
      "type": "function"
    },
    {
      "inputs": [
        {
          "internalType": "address",
          "name": "owner",
          "type": "address"
        }
      ],
      "name": "balanceOf",
      "outputs": [
        {
          "internalType": "uint256",
          "name": "",
          "type": "uint256"
        }
      ],
      "stateMutability": "view",
      "type": "function",
      "constant": true
    },
    {
      "inputs": [
        {
          "internalType": "uint256",
          "name": "tokenId",
          "type": "uint256"
        }
      ],
      "name": "getApproved",
      "outputs": [
        {
          "internalType": "address",
          "name": "",
          "type": "address"
        }
      ],
      "stateMutability": "view",
      "type": "function",
      "constant": true
    },
    {
      "inputs": [
        {
          "internalType": "address",
          "name": "owner",
          "type": "address"
        },
        {
          "internalType": "address",
          "name": "operator",
          "type": "address"
        }
      ],
      "name": "isApprovedForAll",
      "outputs": [
        {
          "internalType": "bool",
          "name": "",
          "type": "bool"
        }
      ],
      "stateMutability": "view",
      "type": "function",
      "constant": true
    },
    {
      "inputs": [],
      "name": "name",
      "outputs": [
        {
          "internalType": "string",
          "name": "",
          "type": "string"
        }
      ],
      "stateMutability": "view",
      "type": "function",
      "constant": true
    },
    {
      "inputs": [],
      "name": "owner",
      "outputs": [
        {
          "internalType": "address",
          "name": "",
          "type": "address"
        }
      ],
      "stateMutability": "view",
      "type": "function",
      "constant": true
    },
    {
      "inputs": [
        {
          "internalType": "uint256",
          "name": "tokenId",
          "type": "uint256"
        }
      ],
      "name": "ownerOf",
      "outputs": [
        {
          "internalType": "address",
          "name": "",
          "type": "address"
        }
      ],
      "stateMutability": "view",
      "type": "function",
      "constant": true
    },
    {
      "inputs": [],
      "name": "renounceOwnership",
      "outputs": [],
      "stateMutability": "nonpayable",
      "type": "function"
    },
    {
      "inputs": [
        {
          "internalType": "address",
          "name": "from",
          "type": "address"
        },
        {
          "internalType": "address",
          "name": "to",
          "type": "address"
        },
        {
          "internalType": "uint256",
          "name": "tokenId",
          "type": "uint256"
        }
      ],
      "name": "safeTransferFrom",
      "outputs": [],
      "stateMutability": "nonpayable",
      "type": "function"
    },
    {
      "inputs": [
        {
          "internalType": "address",
          "name": "from",
          "type": "address"
        },
        {
          "internalType": "address",
          "name": "to",
          "type": "address"
        },
        {
          "internalType": "uint256",
          "name": "tokenId",
          "type": "uint256"
        },
        {
          "internalType": "bytes",
          "name": "_data",
          "type": "bytes"
        }
      ],
      "name": "safeTransferFrom",
      "outputs": [],
      "stateMutability": "nonpayable",
      "type": "function"
    },
    {
      "inputs": [
        {
          "internalType": "address",
          "name": "operator",
          "type": "address"
        },
        {
          "internalType": "bool",
          "name": "approved",
          "type": "bool"
        }
      ],
      "name": "setApprovalForAll",
      "outputs": [],
      "stateMutability": "nonpayable",
      "type": "function"
    },
    {
      "inputs": [
        {
          "internalType": "bytes4",
          "name": "interfaceId",
          "type": "bytes4"
        }
      ],
      "name": "supportsInterface",
      "outputs": [
        {
          "internalType": "bool",
          "name": "",
          "type": "bool"
        }
      ],
      "stateMutability": "view",
      "type": "function",
      "constant": true
    },
    {
      "inputs": [],
      "name": "symbol",
      "outputs": [
        {
          "internalType": "string",
          "name": "",
          "type": "string"
        }
      ],
      "stateMutability": "view",
      "type": "function",
      "constant": true
    },
    {
      "inputs": [
        {
          "internalType": "uint256",
          "name": "tokenId",
          "type": "uint256"
        }
      ],
      "name": "tokenURI",
      "outputs": [
        {
          "internalType": "string",
          "name": "",
          "type": "string"
        }
      ],
      "stateMutability": "view",
      "type": "function",
      "constant": true
    },
    {
      "inputs": [
        {
          "internalType": "address",
          "name": "from",
          "type": "address"
        },
        {
          "internalType": "address",
          "name": "to",
          "type": "address"
        },
        {
          "internalType": "uint256",
          "name": "tokenId",
          "type": "uint256"
        }
      ],
      "name": "transferFrom",
      "outputs": [],
      "stateMutability": "nonpayable",
      "type": "function"
    },
    {
      "inputs": [
        {
          "internalType": "address",
          "name": "newOwner",
          "type": "address"
        }
      ],
      "name": "transferOwnership",
      "outputs": [],
      "stateMutability": "nonpayable",
      "type": "function"
    },
    {
      "inputs": [
        {
          "internalType": "uint256",
          "name": "tokenId",
          "type": "uint256"
        }
      ],
      "name": "getTokenDetails",
      "outputs": [
        {
          "components": [
            {
              "internalType": "uint256",
              "name": "id",
              "type": "uint256"
            },
            {
              "internalType": "uint256",
              "name": "caloriesBurned",
              "type": "uint256"
            },
            {
              "internalType": "uint256",
              "name": "weight",
              "type": "uint256"
            },
            {
              "internalType": "uint256",
              "name": "height",
              "type": "uint256"
            },
            {
              "internalType": "uint256",
              "name": "distanceTravelled",
              "type": "uint256"
            },
            {
              "internalType": "uint256",
              "name": "lastStreak",
              "type": "uint256"
            }
          ],
          "internalType": "struct Token.Athlete",
          "name": "",
          "type": "tuple"
        }
      ],
      "stateMutability": "view",
      "type": "function",
      "constant": true
    },
    {
      "inputs": [
        {
          "internalType": "uint256",
          "name": "id",
          "type": "uint256"
        },
        {
          "internalType": "uint256",
          "name": "caloriesBurned",
          "type": "uint256"
        },
        {
          "internalType": "uint256",
          "name": "weight",
          "type": "uint256"
        },
        {
          "internalType": "uint256",
          "name": "height",
          "type": "uint256"
        },
        {
          "internalType": "uint256",
          "name": "distanceTravelled",
          "type": "uint256"
        },
        {
          "internalType": "uint256",
          "name": "lastStreak",
          "type": "uint256"
        }
      ],
      "name": "mint",
      "outputs": [],
      "stateMutability": "nonpayable",
      "type": "function"
    },
    {
      "inputs": [
        {
          "internalType": "uint256",
          "name": "tokenId",
          "type": "uint256"
        },
        {
          "internalType": "uint256",
          "name": "burned",
          "type": "uint256"
        },
        {
          "internalType": "uint256",
          "name": "distance",
          "type": "uint256"
        }
      ],
      "name": "workout",
      "outputs": [],
      "stateMutability": "nonpayable",
      "type": "function"
    }
  ],
  "bytecode": "0x608060405260006007553480156200001657600080fd5b506040516200320f3803806200320f83398181016040528101906200003c91906200028a565b818181600090805190602001906200005692919062000168565b5080600190805190602001906200006f92919062000168565b50505062000092620000866200009a60201b60201c565b620000a260201b60201c565b50506200042e565b600033905090565b6000600660009054906101000a900473ffffffffffffffffffffffffffffffffffffffff16905081600660006101000a81548173ffffffffffffffffffffffffffffffffffffffff021916908373ffffffffffffffffffffffffffffffffffffffff1602179055508173ffffffffffffffffffffffffffffffffffffffff168173ffffffffffffffffffffffffffffffffffffffff167f8be0079c531659141344cd1fd0a4f28419497f9722a3daafe3b4186f6b6457e060405160405180910390a35050565b82805462000176906200039a565b90600052602060002090601f0160209004810192826200019a5760008555620001e6565b82601f10620001b557805160ff1916838001178555620001e6565b82800160010185558215620001e6579182015b82811115620001e5578251825591602001919060010190620001c8565b5b509050620001f59190620001f9565b5090565b5b8082111562000214576000816000905550600101620001fa565b5090565b60006200022f620002298462000331565b620002fd565b9050828152602081018484840111156200024857600080fd5b6200025584828562000364565b509392505050565b600082601f8301126200026f57600080fd5b81516200028184826020860162000218565b91505092915050565b600080604083850312156200029e57600080fd5b600083015167ffffffffffffffff811115620002b957600080fd5b620002c7858286016200025d565b925050602083015167ffffffffffffffff811115620002e557600080fd5b620002f3858286016200025d565b9150509250929050565b6000604051905081810181811067ffffffffffffffff82111715620003275762000326620003ff565b5b8060405250919050565b600067ffffffffffffffff8211156200034f576200034e620003ff565b5b601f19601f8301169050602081019050919050565b60005b838110156200038457808201518184015260208101905062000367565b8381111562000394576000848401525b50505050565b60006002820490506001821680620003b357607f821691505b60208210811415620003ca57620003c9620003d0565b5b50919050565b7f4e487b7100000000000000000000000000000000000000000000000000000000600052602260045260246000fd5b7f4e487b7100000000000000000000000000000000000000000000000000000000600052604160045260246000fd5b612dd1806200043e6000396000f3fe608060405234801561001057600080fd5b50600436106101215760003560e01c8063715018a6116100ad578063c1e0372811610071578063c1e03728146102f2578063c87b56dd14610322578063da662fff14610352578063e985e9c51461036e578063f2fde38b1461039e57610121565b8063715018a6146102745780638da5cb5b1461027e57806395d89b411461029c578063a22cb465146102ba578063b88d4fde146102d657610121565b8063149615cd116100f4578063149615cd146101c057806323b872dd146101dc57806342842e0e146101f85780636352211e1461021457806370a082311461024457610121565b806301ffc9a71461012657806306fdde0314610156578063081812fc14610174578063095ea7b3146101a4575b600080fd5b610140600480360381019061013b9190611e3e565b6103ba565b60405161014d919061273e565b60405180910390f35b61015e61049c565b60405161016b9190612759565b60405180910390f35b61018e60048036038101906101899190611e90565b61052e565b60405161019b91906126d7565b60405180910390f35b6101be60048036038101906101b99190611e02565b6105b3565b005b6101da60048036038101906101d59190611eb9565b6106cb565b005b6101f660048036038101906101f19190611cfc565b61070d565b005b610212600480360381019061020d9190611cfc565b61076d565b005b61022e60048036038101906102299190611e90565b61078d565b60405161023b91906126d7565b60405180910390f35b61025e60048036038101906102599190611c97565b61083f565b60405161026b9190612996565b60405180910390f35b61027c6108f7565b005b61028661097f565b60405161029391906126d7565b60405180910390f35b6102a46109a9565b6040516102b19190612759565b60405180910390f35b6102d460048036038101906102cf9190611dc6565b610a3b565b005b6102f060048036038101906102eb9190611d4b565b610bbc565b005b61030c60048036038101906103079190611e90565b610c1e565b604051610319919061297b565b60405180910390f35b61033c60048036038101906103379190611e90565b610c87565b6040516103499190612759565b60405180910390f35b61036c60048036038101906103679190611f08565b610d2e565b005b61038860048036038101906103839190611cc0565b610e57565b604051610395919061273e565b60405180910390f35b6103b860048036038101906103b39190611c97565b610eeb565b005b60007f80ac58cd000000000000000000000000000000000000000000000000000000007bffffffffffffffffffffffffffffffffffffffffffffffffffffffff1916827bffffffffffffffffffffffffffffffffffffffffffffffffffffffff1916148061048557507f5b5e139f000000000000000000000000000000000000000000000000000000007bffffffffffffffffffffffffffffffffffffffffffffffffffffffff1916827bffffffffffffffffffffffffffffffffffffffffffffffffffffffff1916145b80610495575061049482610fe3565b5b9050919050565b6060600080546104ab90612bc6565b80601f01602080910402602001604051908101604052809291908181526020018280546104d790612bc6565b80156105245780601f106104f957610100808354040283529160200191610524565b820191906000526020600020905b81548152906001019060200180831161050757829003601f168201915b5050505050905090565b60006105398261104d565b610578576040517f08c379a000000000000000000000000000000000000000000000000000000000815260040161056f906128bb565b60405180910390fd5b6004600083815260200190815260200160002060009054906101000a900473ffffffffffffffffffffffffffffffffffffffff169050919050565b60006105be8261078d565b90508073ffffffffffffffffffffffffffffffffffffffff168373ffffffffffffffffffffffffffffffffffffffff16141561062f576040517f08c379a00000000000000000000000000000000000000000000000000000000081526004016106269061293b565b60405180910390fd5b8073ffffffffffffffffffffffffffffffffffffffff1661064e6110b9565b73ffffffffffffffffffffffffffffffffffffffff16148061067d575061067c816106776110b9565b610e57565b5b6106bc576040517f08c379a00000000000000000000000000000000000000000000000000000000081526004016106b39061283b565b60405180910390fd5b6106c683836110c1565b505050565b60006008600085815260200190815260200160002090506000816000018190555082816001018190555081816004018190555042816005018190555050505050565b61071e6107186110b9565b8261117a565b61075d576040517f08c379a00000000000000000000000000000000000000000000000000000000081526004016107549061295b565b60405180910390fd5b610768838383611258565b505050565b61078883838360405180602001604052806000815250610bbc565b505050565b6000806002600084815260200190815260200160002060009054906101000a900473ffffffffffffffffffffffffffffffffffffffff169050600073ffffffffffffffffffffffffffffffffffffffff168173ffffffffffffffffffffffffffffffffffffffff161415610836576040517f08c379a000000000000000000000000000000000000000000000000000000000815260040161082d9061287b565b60405180910390fd5b80915050919050565b60008073ffffffffffffffffffffffffffffffffffffffff168273ffffffffffffffffffffffffffffffffffffffff1614156108b0576040517f08c379a00000000000000000000000000000000000000000000000000000000081526004016108a79061285b565b60405180910390fd5b600360008373ffffffffffffffffffffffffffffffffffffffff1673ffffffffffffffffffffffffffffffffffffffff168152602001908152602001600020549050919050565b6108ff6110b9565b73ffffffffffffffffffffffffffffffffffffffff1661091d61097f565b73ffffffffffffffffffffffffffffffffffffffff1614610973576040517f08c379a000000000000000000000000000000000000000000000000000000000815260040161096a906128db565b60405180910390fd5b61097d60006114b4565b565b6000600660009054906101000a900473ffffffffffffffffffffffffffffffffffffffff16905090565b6060600180546109b890612bc6565b80601f01602080910402602001604051908101604052809291908181526020018280546109e490612bc6565b8015610a315780601f10610a0657610100808354040283529160200191610a31565b820191906000526020600020905b815481529060010190602001808311610a1457829003601f168201915b5050505050905090565b610a436110b9565b73ffffffffffffffffffffffffffffffffffffffff168273ffffffffffffffffffffffffffffffffffffffff161415610ab1576040517f08c379a0000000000000000000000000000000000000000000000000000000008152600401610aa8906127fb565b60405180910390fd5b8060056000610abe6110b9565b73ffffffffffffffffffffffffffffffffffffffff1673ffffffffffffffffffffffffffffffffffffffff16815260200190815260200160002060008473ffffffffffffffffffffffffffffffffffffffff1673ffffffffffffffffffffffffffffffffffffffff16815260200190815260200160002060006101000a81548160ff0219169083151502179055508173ffffffffffffffffffffffffffffffffffffffff16610b6b6110b9565b73ffffffffffffffffffffffffffffffffffffffff167f17307eab39ab6107e8899845ad3d59bd9653f200f220920489ca2b5937696c3183604051610bb0919061273e565b60405180910390a35050565b610bcd610bc76110b9565b8361117a565b610c0c576040517f08c379a0000000000000000000000000000000000000000000000000000000008152600401610c039061295b565b60405180910390fd5b610c188484848461157a565b50505050565b610c26611b90565b600860008381526020019081526020016000206040518060c001604052908160008201548152602001600182015481526020016002820154815260200160038201548152602001600482015481526020016005820154815250509050919050565b6060610c928261104d565b610cd1576040517f08c379a0000000000000000000000000000000000000000000000000000000008152600401610cc89061291b565b60405180910390fd5b6000610cdb6115d6565b90506000815111610cfb5760405180602001604052806000815250610d26565b80610d05846115ed565b604051602001610d169291906126b3565b6040516020818303038152906040525b915050919050565b610d366110b9565b73ffffffffffffffffffffffffffffffffffffffff16610d5461097f565b73ffffffffffffffffffffffffffffffffffffffff1614610daa576040517f08c379a0000000000000000000000000000000000000000000000000000000008152600401610da1906128db565b60405180910390fd5b6040518060c0016040528087815260200186815260200185815260200184815260200183815260200182815250600860006007548152602001908152602001600020600082015181600001556020820151816001015560408201518160020155606082015181600301556080820151816004015560a08201518160050155905050610e373360075461179a565b60076000815480929190610e4a90612bf8565b9190505550505050505050565b6000600560008473ffffffffffffffffffffffffffffffffffffffff1673ffffffffffffffffffffffffffffffffffffffff16815260200190815260200160002060008373ffffffffffffffffffffffffffffffffffffffff1673ffffffffffffffffffffffffffffffffffffffff16815260200190815260200160002060009054906101000a900460ff16905092915050565b610ef36110b9565b73ffffffffffffffffffffffffffffffffffffffff16610f1161097f565b73ffffffffffffffffffffffffffffffffffffffff1614610f67576040517f08c379a0000000000000000000000000000000000000000000000000000000008152600401610f5e906128db565b60405180910390fd5b600073ffffffffffffffffffffffffffffffffffffffff168173ffffffffffffffffffffffffffffffffffffffff161415610fd7576040517f08c379a0000000000000000000000000000000000000000000000000000000008152600401610fce9061279b565b60405180910390fd5b610fe0816114b4565b50565b60007f01ffc9a7000000000000000000000000000000000000000000000000000000007bffffffffffffffffffffffffffffffffffffffffffffffffffffffff1916827bffffffffffffffffffffffffffffffffffffffffffffffffffffffff1916149050919050565b60008073ffffffffffffffffffffffffffffffffffffffff166002600084815260200190815260200160002060009054906101000a900473ffffffffffffffffffffffffffffffffffffffff1673ffffffffffffffffffffffffffffffffffffffff1614159050919050565b600033905090565b816004600083815260200190815260200160002060006101000a81548173ffffffffffffffffffffffffffffffffffffffff021916908373ffffffffffffffffffffffffffffffffffffffff160217905550808273ffffffffffffffffffffffffffffffffffffffff166111348361078d565b73ffffffffffffffffffffffffffffffffffffffff167f8c5be1e5ebec7d5bd14f71427d1e84f3dd0314c0f7b2291e5b200ac8c7c3b92560405160405180910390a45050565b60006111858261104d565b6111c4576040517f08c379a00000000000000000000000000000000000000000000000000000000081526004016111bb9061281b565b60405180910390fd5b60006111cf8361078d565b90508073ffffffffffffffffffffffffffffffffffffffff168473ffffffffffffffffffffffffffffffffffffffff16148061123e57508373ffffffffffffffffffffffffffffffffffffffff166112268461052e565b73ffffffffffffffffffffffffffffffffffffffff16145b8061124f575061124e8185610e57565b5b91505092915050565b8273ffffffffffffffffffffffffffffffffffffffff166112788261078d565b73ffffffffffffffffffffffffffffffffffffffff16146112ce576040517f08c379a00000000000000000000000000000000000000000000000000000000081526004016112c5906128fb565b60405180910390fd5b600073ffffffffffffffffffffffffffffffffffffffff168273ffffffffffffffffffffffffffffffffffffffff16141561133e576040517f08c379a0000000000000000000000000000000000000000000000000000000008152600401611335906127db565b60405180910390fd5b6113498383836117b8565b6113546000826110c1565b6001600360008573ffffffffffffffffffffffffffffffffffffffff1673ffffffffffffffffffffffffffffffffffffffff16815260200190815260200160002060008282546113a49190612adc565b925050819055506001600360008473ffffffffffffffffffffffffffffffffffffffff1673ffffffffffffffffffffffffffffffffffffffff16815260200190815260200160002060008282546113fb9190612a55565b92505081905550816002600083815260200190815260200160002060006101000a81548173ffffffffffffffffffffffffffffffffffffffff021916908373ffffffffffffffffffffffffffffffffffffffff160217905550808273ffffffffffffffffffffffffffffffffffffffff168473ffffffffffffffffffffffffffffffffffffffff167fddf252ad1be2c89b69c2b068fc378daa952ba7f163c4a11628f55a4df523b3ef60405160405180910390a4505050565b6000600660009054906101000a900473ffffffffffffffffffffffffffffffffffffffff16905081600660006101000a81548173ffffffffffffffffffffffffffffffffffffffff021916908373ffffffffffffffffffffffffffffffffffffffff1602179055508173ffffffffffffffffffffffffffffffffffffffff168173ffffffffffffffffffffffffffffffffffffffff167f8be0079c531659141344cd1fd0a4f28419497f9722a3daafe3b4186f6b6457e060405160405180910390a35050565b611585848484611258565b611591848484846117bd565b6115d0576040517f08c379a00000000000000000000000000000000000000000000000000000000081526004016115c79061277b565b60405180910390fd5b50505050565b606060405180602001604052806000815250905090565b60606000821415611635576040518060400160405280600181526020017f30000000000000000000000000000000000000000000000000000000000000008152509050611795565b600082905060005b6000821461166757808061165090612bf8565b915050600a826116609190612aab565b915061163d565b60008167ffffffffffffffff8111156116a9577f4e487b7100000000000000000000000000000000000000000000000000000000600052604160045260246000fd5b6040519080825280601f01601f1916602001820160405280156116db5781602001600182028036833780820191505090505b5090505b6000851461178e576001826116f49190612adc565b9150600a856117039190612c41565b603061170f9190612a55565b60f81b81838151811061174b577f4e487b7100000000000000000000000000000000000000000000000000000000600052603260045260246000fd5b60200101907effffffffffffffffffffffffffffffffffffffffffffffffffffffffffffff1916908160001a905350600a856117879190612aab565b94506116df565b8093505050505b919050565b6117b4828260405180602001604052806000815250611954565b5050565b505050565b60006117de8473ffffffffffffffffffffffffffffffffffffffff166119af565b15611947578373ffffffffffffffffffffffffffffffffffffffff1663150b7a026118076110b9565b8786866040518563ffffffff1660e01b815260040161182994939291906126f2565b602060405180830381600087803b15801561184357600080fd5b505af192505050801561187457506040513d601f19601f820116820180604052508101906118719190611e67565b60015b6118f7573d80600081146118a4576040519150601f19603f3d011682016040523d82523d6000602084013e6118a9565b606091505b506000815114156118ef576040517f08c379a00000000000000000000000000000000000000000000000000000000081526004016118e69061277b565b60405180910390fd5b805181602001fd5b63150b7a0260e01b7bffffffffffffffffffffffffffffffffffffffffffffffffffffffff1916817bffffffffffffffffffffffffffffffffffffffffffffffffffffffff19161491505061194c565b600190505b949350505050565b61195e83836119c2565b61196b60008484846117bd565b6119aa576040517f08c379a00000000000000000000000000000000000000000000000000000000081526004016119a19061277b565b60405180910390fd5b505050565b600080823b905060008111915050919050565b600073ffffffffffffffffffffffffffffffffffffffff168273ffffffffffffffffffffffffffffffffffffffff161415611a32576040517f08c379a0000000000000000000000000000000000000000000000000000000008152600401611a299061289b565b60405180910390fd5b611a3b8161104d565b15611a7b576040517f08c379a0000000000000000000000000000000000000000000000000000000008152600401611a72906127bb565b60405180910390fd5b611a87600083836117b8565b6001600360008473ffffffffffffffffffffffffffffffffffffffff1673ffffffffffffffffffffffffffffffffffffffff1681526020019081526020016000206000828254611ad79190612a55565b92505081905550816002600083815260200190815260200160002060006101000a81548173ffffffffffffffffffffffffffffffffffffffff021916908373ffffffffffffffffffffffffffffffffffffffff160217905550808273ffffffffffffffffffffffffffffffffffffffff16600073ffffffffffffffffffffffffffffffffffffffff167fddf252ad1be2c89b69c2b068fc378daa952ba7f163c4a11628f55a4df523b3ef60405160405180910390a45050565b6040518060c001604052806000815260200160008152602001600081526020016000815260200160008152602001600081525090565b6000611bd9611bd4846129e2565b6129b1565b905082815260208101848484011115611bf157600080fd5b611bfc848285612b84565b509392505050565b600081359050611c1381612d3f565b92915050565b600081359050611c2881612d56565b92915050565b600081359050611c3d81612d6d565b92915050565b600081519050611c5281612d6d565b92915050565b600082601f830112611c6957600080fd5b8135611c79848260208601611bc6565b91505092915050565b600081359050611c9181612d84565b92915050565b600060208284031215611ca957600080fd5b6000611cb784828501611c04565b91505092915050565b60008060408385031215611cd357600080fd5b6000611ce185828601611c04565b9250506020611cf285828601611c04565b9150509250929050565b600080600060608486031215611d1157600080fd5b6000611d1f86828701611c04565b9350506020611d3086828701611c04565b9250506040611d4186828701611c82565b9150509250925092565b60008060008060808587031215611d6157600080fd5b6000611d6f87828801611c04565b9450506020611d8087828801611c04565b9350506040611d9187828801611c82565b925050606085013567ffffffffffffffff811115611dae57600080fd5b611dba87828801611c58565b91505092959194509250565b60008060408385031215611dd957600080fd5b6000611de785828601611c04565b9250506020611df885828601611c19565b9150509250929050565b60008060408385031215611e1557600080fd5b6000611e2385828601611c04565b9250506020611e3485828601611c82565b9150509250929050565b600060208284031215611e5057600080fd5b6000611e5e84828501611c2e565b91505092915050565b600060208284031215611e7957600080fd5b6000611e8784828501611c43565b91505092915050565b600060208284031215611ea257600080fd5b6000611eb084828501611c82565b91505092915050565b600080600060608486031215611ece57600080fd5b6000611edc86828701611c82565b9350506020611eed86828701611c82565b9250506040611efe86828701611c82565b9150509250925092565b60008060008060008060c08789031215611f2157600080fd5b6000611f2f89828a01611c82565b9650506020611f4089828a01611c82565b9550506040611f5189828a01611c82565b9450506060611f6289828a01611c82565b9350506080611f7389828a01611c82565b92505060a0611f8489828a01611c82565b9150509295509295509295565b611f9a81612b10565b82525050565b611fa981612b22565b82525050565b6000611fba82612a12565b611fc48185612a28565b9350611fd4818560208601612b93565b611fdd81612d2e565b840191505092915050565b6000611ff382612a1d565b611ffd8185612a39565b935061200d818560208601612b93565b61201681612d2e565b840191505092915050565b600061202c82612a1d565b6120368185612a4a565b9350612046818560208601612b93565b80840191505092915050565b600061205f603283612a39565b91507f4552433732313a207472616e7366657220746f206e6f6e20455243373231526560008301527f63656976657220696d706c656d656e74657200000000000000000000000000006020830152604082019050919050565b60006120c5602683612a39565b91507f4f776e61626c653a206e6577206f776e657220697320746865207a65726f206160008301527f64647265737300000000000000000000000000000000000000000000000000006020830152604082019050919050565b600061212b601c83612a39565b91507f4552433732313a20746f6b656e20616c7265616479206d696e746564000000006000830152602082019050919050565b600061216b602483612a39565b91507f4552433732313a207472616e7366657220746f20746865207a65726f2061646460008301527f72657373000000000000000000000000000000000000000000000000000000006020830152604082019050919050565b60006121d1601983612a39565b91507f4552433732313a20617070726f766520746f2063616c6c6572000000000000006000830152602082019050919050565b6000612211602c83612a39565b91507f4552433732313a206f70657261746f7220717565727920666f72206e6f6e657860008301527f697374656e7420746f6b656e00000000000000000000000000000000000000006020830152604082019050919050565b6000612277603883612a39565b91507f4552433732313a20617070726f76652063616c6c6572206973206e6f74206f7760008301527f6e6572206e6f7220617070726f76656420666f7220616c6c00000000000000006020830152604082019050919050565b60006122dd602a83612a39565b91507f4552433732313a2062616c616e636520717565727920666f7220746865207a6560008301527f726f2061646472657373000000000000000000000000000000000000000000006020830152604082019050919050565b6000612343602983612a39565b91507f4552433732313a206f776e657220717565727920666f72206e6f6e657869737460008301527f656e7420746f6b656e00000000000000000000000000000000000000000000006020830152604082019050919050565b60006123a9602083612a39565b91507f4552433732313a206d696e7420746f20746865207a65726f20616464726573736000830152602082019050919050565b60006123e9602c83612a39565b91507f4552433732313a20617070726f76656420717565727920666f72206e6f6e657860008301527f697374656e7420746f6b656e00000000000000000000000000000000000000006020830152604082019050919050565b600061244f602083612a39565b91507f4f776e61626c653a2063616c6c6572206973206e6f7420746865206f776e65726000830152602082019050919050565b600061248f602983612a39565b91507f4552433732313a207472616e73666572206f6620746f6b656e2074686174206960008301527f73206e6f74206f776e00000000000000000000000000000000000000000000006020830152604082019050919050565b60006124f5602f83612a39565b91507f4552433732314d657461646174613a2055524920717565727920666f72206e6f60008301527f6e6578697374656e7420746f6b656e00000000000000000000000000000000006020830152604082019050919050565b600061255b602183612a39565b91507f4552433732313a20617070726f76616c20746f2063757272656e74206f776e6560008301527f72000000000000000000000000000000000000000000000000000000000000006020830152604082019050919050565b60006125c1603183612a39565b91507f4552433732313a207472616e736665722063616c6c6572206973206e6f74206f60008301527f776e6572206e6f7220617070726f7665640000000000000000000000000000006020830152604082019050919050565b60c0820160008201516126306000850182612695565b5060208201516126436020850182612695565b5060408201516126566040850182612695565b5060608201516126696060850182612695565b50608082015161267c6080850182612695565b5060a082015161268f60a0850182612695565b50505050565b61269e81612b7a565b82525050565b6126ad81612b7a565b82525050565b60006126bf8285612021565b91506126cb8284612021565b91508190509392505050565b60006020820190506126ec6000830184611f91565b92915050565b60006080820190506127076000830187611f91565b6127146020830186611f91565b61272160408301856126a4565b81810360608301526127338184611faf565b905095945050505050565b60006020820190506127536000830184611fa0565b92915050565b600060208201905081810360008301526127738184611fe8565b905092915050565b6000602082019050818103600083015261279481612052565b9050919050565b600060208201905081810360008301526127b4816120b8565b9050919050565b600060208201905081810360008301526127d48161211e565b9050919050565b600060208201905081810360008301526127f48161215e565b9050919050565b60006020820190508181036000830152612814816121c4565b9050919050565b6000602082019050818103600083015261283481612204565b9050919050565b600060208201905081810360008301526128548161226a565b9050919050565b60006020820190508181036000830152612874816122d0565b9050919050565b6000602082019050818103600083015261289481612336565b9050919050565b600060208201905081810360008301526128b48161239c565b9050919050565b600060208201905081810360008301526128d4816123dc565b9050919050565b600060208201905081810360008301526128f481612442565b9050919050565b6000602082019050818103600083015261291481612482565b9050919050565b60006020820190508181036000830152612934816124e8565b9050919050565b600060208201905081810360008301526129548161254e565b9050919050565b60006020820190508181036000830152612974816125b4565b9050919050565b600060c082019050612990600083018461261a565b92915050565b60006020820190506129ab60008301846126a4565b92915050565b6000604051905081810181811067ffffffffffffffff821117156129d8576129d7612cff565b5b8060405250919050565b600067ffffffffffffffff8211156129fd576129fc612cff565b5b601f19601f8301169050602081019050919050565b600081519050919050565b600081519050919050565b600082825260208201905092915050565b600082825260208201905092915050565b600081905092915050565b6000612a6082612b7a565b9150612a6b83612b7a565b9250827fffffffffffffffffffffffffffffffffffffffffffffffffffffffffffffffff03821115612aa057612a9f612c72565b5b828201905092915050565b6000612ab682612b7a565b9150612ac183612b7a565b925082612ad157612ad0612ca1565b5b828204905092915050565b6000612ae782612b7a565b9150612af283612b7a565b925082821015612b0557612b04612c72565b5b828203905092915050565b6000612b1b82612b5a565b9050919050565b60008115159050919050565b60007fffffffff0000000000000000000000000000000000000000000000000000000082169050919050565b600073ffffffffffffffffffffffffffffffffffffffff82169050919050565b6000819050919050565b82818337600083830152505050565b60005b83811015612bb1578082015181840152602081019050612b96565b83811115612bc0576000848401525b50505050565b60006002820490506001821680612bde57607f821691505b60208210811415612bf257612bf1612cd0565b5b50919050565b6000612c0382612b7a565b91507fffffffffffffffffffffffffffffffffffffffffffffffffffffffffffffffff821415612c3657612c35612c72565b5b600182019050919050565b6000612c4c82612b7a565b9150612c5783612b7a565b925082612c6757612c66612ca1565b5b828206905092915050565b7f4e487b7100000000000000000000000000000000000000000000000000000000600052601160045260246000fd5b7f4e487b7100000000000000000000000000000000000000000000000000000000600052601260045260246000fd5b7f4e487b7100000000000000000000000000000000000000000000000000000000600052602260045260246000fd5b7f4e487b7100000000000000000000000000000000000000000000000000000000600052604160045260246000fd5b6000601f19601f8301169050919050565b612d4881612b10565b8114612d5357600080fd5b50565b612d5f81612b22565b8114612d6a57600080fd5b50565b612d7681612b2e565b8114612d8157600080fd5b50565b612d8d81612b7a565b8114612d9857600080fd5b5056fea2646970667358221220ee81705e6398eafa48a8bf73a9e7c971f0a9ab134418fb76d1646cfc44901d6e64736f6c63430008000033",
  "immutableReferences": {},
  "source": "// SPDX-License-Identifier: MIT\npragma solidity >=0.4.22 <0.9.0;\n\nimport \"../node_modules/@openzeppelin/contracts/token/ERC721/ERC721.sol\";\nimport \"../node_modules/@openzeppelin/contracts/access/Ownable.sol\";\n\ncontract Token is ERC721, Ownable {\n  struct Athlete {\n    uint256 id;\n    uint256 caloriesBurned;\n    uint256 weight;\n    uint256 height;\n    uint256 distanceTravelled;\n    uint256 lastStreak;\n  }\n\n  uint nextId = 0;\n\n  mapping(uint256 => Athlete) _athleteDetails;\n\n  constructor(string memory name, string memory symbol) ERC721(name, symbol) {\n\n  }\n\n  function getTokenDetails(uint256 tokenId) public view returns (Athlete memory) {\n    return _athleteDetails[tokenId];\n  }\n\n  function mint(uint id, uint256 caloriesBurned, uint256 weight, uint256 height, uint256 distanceTravelled, uint256 lastStreak) public onlyOwner {\n    _athleteDetails[nextId] = Athlete(id, caloriesBurned, weight, height, distanceTravelled, lastStreak);\n    _safeMint(msg.sender, nextId);\n    nextId++;\n  }\n\n  function workout(uint256 tokenId, uint burned, uint distance) public {\n    Athlete storage athlete = _athleteDetails[tokenId];\n    // require(msg.sender == athlete.owner);\n    athlete.id = 0;\n    athlete.caloriesBurned = burned;\n    athlete.distanceTravelled = distance;\n    athlete.lastStreak = block.timestamp;\n  }\n}",
  "sourcePath": "/Users/bharath/sourcecode/HackZurich/nft/contracts/Token.sol",
  "compiler": {
    "name": "solc",
    "version": "0.8.0+commit.c7dfd78e.Emscripten.clang"
  },
  "schemaVersion": "3.4.3",
  "updatedAt": "2021-09-25T11:26:46.577Z",
  "networkType": "ethereum",
  "devdoc": {
    "kind": "dev",
    "methods": {
      "approve(address,uint256)": {
        "details": "See {IERC721-approve}."
      },
      "balanceOf(address)": {
        "details": "See {IERC721-balanceOf}."
      },
      "getApproved(uint256)": {
        "details": "See {IERC721-getApproved}."
      },
      "isApprovedForAll(address,address)": {
        "details": "See {IERC721-isApprovedForAll}."
      },
      "name()": {
        "details": "See {IERC721Metadata-name}."
      },
      "owner()": {
        "details": "Returns the address of the current owner."
      },
      "ownerOf(uint256)": {
        "details": "See {IERC721-ownerOf}."
      },
      "renounceOwnership()": {
        "details": "Leaves the contract without owner. It will not be possible to call `onlyOwner` functions anymore. Can only be called by the current owner. NOTE: Renouncing ownership will leave the contract without an owner, thereby removing any functionality that is only available to the owner."
      },
      "safeTransferFrom(address,address,uint256)": {
        "details": "See {IERC721-safeTransferFrom}."
      },
      "safeTransferFrom(address,address,uint256,bytes)": {
        "details": "See {IERC721-safeTransferFrom}."
      },
      "setApprovalForAll(address,bool)": {
        "details": "See {IERC721-setApprovalForAll}."
      },
      "supportsInterface(bytes4)": {
        "details": "See {IERC165-supportsInterface}."
      },
      "symbol()": {
        "details": "See {IERC721Metadata-symbol}."
      },
      "tokenURI(uint256)": {
        "details": "See {IERC721Metadata-tokenURI}."
      },
      "transferFrom(address,address,uint256)": {
        "details": "See {IERC721-transferFrom}."
      },
      "transferOwnership(address)": {
        "details": "Transfers ownership of the contract to a new account (`newOwner`). Can only be called by the current owner."
      }
    },
    "version": 1
  },
  "userdoc": {
    "kind": "user",
    "methods": {},
    "version": 1
  }
}