{
  "contractName": "Token",
  "abi": [
    {
      "inputs": [
        {
          "internalType": "string",
          "name": "name",
          "type": "string"
        },
        {
          "internalType": "string",
          "name": "symbol",
          "type": "string"
        }
      ],
      "stateMutability": "nonpayable",
      "type": "constructor"
    },
    {
      "anonymous": false,
      "inputs": [
        {
          "indexed": true,
          "internalType": "address",
          "name": "owner",
          "type": "address"
        },
        {
          "indexed": true,
          "internalType": "address",
          "name": "approved",
          "type": "address"
        },
        {
          "indexed": true,
          "internalType": "uint256",
          "name": "tokenId",
          "type": "uint256"
        }
      ],
      "name": "Approval",
      "type": "event"
    },
    {
      "anonymous": false,
      "inputs": [
        {
          "indexed": true,
          "internalType": "address",
          "name": "owner",
          "type": "address"
        },
        {
          "indexed": true,
          "internalType": "address",
          "name": "operator",
          "type": "address"
        },
        {
          "indexed": false,
          "internalType": "bool",
          "name": "approved",
          "type": "bool"
        }
      ],
      "name": "ApprovalForAll",
      "type": "event"
    },
    {
      "anonymous": false,
      "inputs": [
        {
          "indexed": true,
          "internalType": "address",
          "name": "previousOwner",
          "type": "address"
        },
        {
          "indexed": true,
          "internalType": "address",
          "name": "newOwner",
          "type": "address"
        }
      ],
      "name": "OwnershipTransferred",
      "type": "event"
    },
    {
      "anonymous": false,
      "inputs": [
        {
          "indexed": true,
          "internalType": "address",
          "name": "from",
          "type": "address"
        },
        {
          "indexed": true,
          "internalType": "address",
          "name": "to",
          "type": "address"
        },
        {
          "indexed": true,
          "internalType": "uint256",
          "name": "tokenId",
          "type": "uint256"
        }
      ],
      "name": "Transfer",
      "type": "event"
    },
    {
      "inputs": [
        {
          "internalType": "address",
          "name": "to",
          "type": "address"
        },
        {
          "internalType": "uint256",
          "name": "tokenId",
          "type": "uint256"
        }
      ],
      "name": "approve",
      "outputs": [],
      "stateMutability": "nonpayable",
      "type": "function"
    },
    {
      "inputs": [
        {
          "internalType": "address",
          "name": "owner",
          "type": "address"
        }
      ],
      "name": "balanceOf",
      "outputs": [
        {
          "internalType": "uint256",
          "name": "",
          "type": "uint256"
        }
      ],
      "stateMutability": "view",
      "type": "function",
      "constant": true
    },
    {
      "inputs": [
        {
          "internalType": "uint256",
          "name": "tokenId",
          "type": "uint256"
        }
      ],
      "name": "getApproved",
      "outputs": [
        {
          "internalType": "address",
          "name": "",
          "type": "address"
        }
      ],
      "stateMutability": "view",
      "type": "function",
      "constant": true
    },
    {
      "inputs": [
        {
          "internalType": "address",
          "name": "owner",
          "type": "address"
        },
        {
          "internalType": "address",
          "name": "operator",
          "type": "address"
        }
      ],
      "name": "isApprovedForAll",
      "outputs": [
        {
          "internalType": "bool",
          "name": "",
          "type": "bool"
        }
      ],
      "stateMutability": "view",
      "type": "function",
      "constant": true
    },
    {
      "inputs": [],
      "name": "name",
      "outputs": [
        {
          "internalType": "string",
          "name": "",
          "type": "string"
        }
      ],
      "stateMutability": "view",
      "type": "function",
      "constant": true
    },
    {
      "inputs": [],
      "name": "owner",
      "outputs": [
        {
          "internalType": "address",
          "name": "",
          "type": "address"
        }
      ],
      "stateMutability": "view",
      "type": "function",
      "constant": true
    },
    {
      "inputs": [
        {
          "internalType": "uint256",
          "name": "tokenId",
          "type": "uint256"
        }
      ],
      "name": "ownerOf",
      "outputs": [
        {
          "internalType": "address",
          "name": "",
          "type": "address"
        }
      ],
      "stateMutability": "view",
      "type": "function",
      "constant": true
    },
    {
      "inputs": [],
      "name": "renounceOwnership",
      "outputs": [],
      "stateMutability": "nonpayable",
      "type": "function"
    },
    {
      "inputs": [
        {
          "internalType": "address",
          "name": "from",
          "type": "address"
        },
        {
          "internalType": "address",
          "name": "to",
          "type": "address"
        },
        {
          "internalType": "uint256",
          "name": "tokenId",
          "type": "uint256"
        }
      ],
      "name": "safeTransferFrom",
      "outputs": [],
      "stateMutability": "nonpayable",
      "type": "function"
    },
    {
      "inputs": [
        {
          "internalType": "address",
          "name": "from",
          "type": "address"
        },
        {
          "internalType": "address",
          "name": "to",
          "type": "address"
        },
        {
          "internalType": "uint256",
          "name": "tokenId",
          "type": "uint256"
        },
        {
          "internalType": "bytes",
          "name": "_data",
          "type": "bytes"
        }
      ],
      "name": "safeTransferFrom",
      "outputs": [],
      "stateMutability": "nonpayable",
      "type": "function"
    },
    {
      "inputs": [
        {
          "internalType": "address",
          "name": "operator",
          "type": "address"
        },
        {
          "internalType": "bool",
          "name": "approved",
          "type": "bool"
        }
      ],
      "name": "setApprovalForAll",
      "outputs": [],
      "stateMutability": "nonpayable",
      "type": "function"
    },
    {
      "inputs": [
        {
          "internalType": "bytes4",
          "name": "interfaceId",
          "type": "bytes4"
        }
      ],
      "name": "supportsInterface",
      "outputs": [
        {
          "internalType": "bool",
          "name": "",
          "type": "bool"
        }
      ],
      "stateMutability": "view",
      "type": "function",
      "constant": true
    },
    {
      "inputs": [],
      "name": "symbol",
      "outputs": [
        {
          "internalType": "string",
          "name": "",
          "type": "string"
        }
      ],
      "stateMutability": "view",
      "type": "function",
      "constant": true
    },
    {
      "inputs": [
        {
          "internalType": "uint256",
          "name": "tokenId",
          "type": "uint256"
        }
      ],
      "name": "tokenURI",
      "outputs": [
        {
          "internalType": "string",
          "name": "",
          "type": "string"
        }
      ],
      "stateMutability": "view",
      "type": "function",
      "constant": true
    },
    {
      "inputs": [
        {
          "internalType": "address",
          "name": "from",
          "type": "address"
        },
        {
          "internalType": "address",
          "name": "to",
          "type": "address"
        },
        {
          "internalType": "uint256",
          "name": "tokenId",
          "type": "uint256"
        }
      ],
      "name": "transferFrom",
      "outputs": [],
      "stateMutability": "nonpayable",
      "type": "function"
    },
    {
      "inputs": [
        {
          "internalType": "address",
          "name": "newOwner",
          "type": "address"
        }
      ],
      "name": "transferOwnership",
      "outputs": [],
      "stateMutability": "nonpayable",
      "type": "function"
    },
    {
      "inputs": [
        {
          "internalType": "uint256",
          "name": "tokenId",
          "type": "uint256"
        }
      ],
      "name": "getTokenDetails",
      "outputs": [
        {
          "components": [
            {
              "internalType": "uint256",
              "name": "caloriesBurned",
              "type": "uint256"
            },
            {
              "internalType": "uint256",
              "name": "weight",
              "type": "uint256"
            },
            {
              "internalType": "uint256",
              "name": "height",
              "type": "uint256"
            },
            {
              "internalType": "uint256",
              "name": "distanceTravelled",
              "type": "uint256"
            },
            {
              "internalType": "uint256",
              "name": "lastStreak",
              "type": "uint256"
            }
          ],
          "internalType": "struct Token.Athlete",
          "name": "",
          "type": "tuple"
        }
      ],
      "stateMutability": "view",
      "type": "function",
      "constant": true
    },
    {
      "inputs": [
        {
          "internalType": "uint256",
          "name": "caloriesBurned",
          "type": "uint256"
        },
        {
          "internalType": "uint256",
          "name": "weight",
          "type": "uint256"
        },
        {
          "internalType": "uint256",
          "name": "height",
          "type": "uint256"
        },
        {
          "internalType": "uint256",
          "name": "distanceTravelled",
          "type": "uint256"
        },
        {
          "internalType": "uint256",
          "name": "lastStreak",
          "type": "uint256"
        }
      ],
      "name": "mint",
      "outputs": [],
      "stateMutability": "nonpayable",
      "type": "function"
    },
    {
      "inputs": [
        {
          "internalType": "uint256",
          "name": "tokenId",
          "type": "uint256"
        },
        {
          "internalType": "uint256",
          "name": "burned",
          "type": "uint256"
        },
        {
          "internalType": "uint256",
          "name": "distance",
          "type": "uint256"
        }
      ],
      "name": "workout",
      "outputs": [],
      "stateMutability": "nonpayable",
      "type": "function"
    }
  ],
  "bytecode": "0x608060405260006007553480156200001657600080fd5b50604051620031e2380380620031e283398181016040528101906200003c91906200028a565b818181600090805190602001906200005692919062000168565b5080600190805190602001906200006f92919062000168565b50505062000092620000866200009a60201b60201c565b620000a260201b60201c565b50506200042e565b600033905090565b6000600660009054906101000a900473ffffffffffffffffffffffffffffffffffffffff16905081600660006101000a81548173ffffffffffffffffffffffffffffffffffffffff021916908373ffffffffffffffffffffffffffffffffffffffff1602179055508173ffffffffffffffffffffffffffffffffffffffff168173ffffffffffffffffffffffffffffffffffffffff167f8be0079c531659141344cd1fd0a4f28419497f9722a3daafe3b4186f6b6457e060405160405180910390a35050565b82805462000176906200039a565b90600052602060002090601f0160209004810192826200019a5760008555620001e6565b82601f10620001b557805160ff1916838001178555620001e6565b82800160010185558215620001e6579182015b82811115620001e5578251825591602001919060010190620001c8565b5b509050620001f59190620001f9565b5090565b5b8082111562000214576000816000905550600101620001fa565b5090565b60006200022f620002298462000331565b620002fd565b9050828152602081018484840111156200024857600080fd5b6200025584828562000364565b509392505050565b600082601f8301126200026f57600080fd5b81516200028184826020860162000218565b91505092915050565b600080604083850312156200029e57600080fd5b600083015167ffffffffffffffff811115620002b957600080fd5b620002c7858286016200025d565b925050602083015167ffffffffffffffff811115620002e557600080fd5b620002f3858286016200025d565b9150509250929050565b6000604051905081810181811067ffffffffffffffff82111715620003275762000326620003ff565b5b8060405250919050565b600067ffffffffffffffff8211156200034f576200034e620003ff565b5b601f19601f8301169050602081019050919050565b60005b838110156200038457808201518184015260208101905062000367565b8381111562000394576000848401525b50505050565b60006002820490506001821680620003b357607f821691505b60208210811415620003ca57620003c9620003d0565b5b50919050565b7f4e487b7100000000000000000000000000000000000000000000000000000000600052602260045260246000fd5b7f4e487b7100000000000000000000000000000000000000000000000000000000600052604160045260246000fd5b612da4806200043e6000396000f3fe608060405234801561001057600080fd5b50600436106101215760003560e01c8063715018a6116100ad578063b88d4fde11610071578063b88d4fde146102f2578063c1e037281461030e578063c87b56dd1461033e578063e985e9c51461036e578063f2fde38b1461039e57610121565b8063715018a6146102745780638da5cb5b1461027e57806395d89b411461029c578063a22cb465146102ba578063ae3dfa28146102d657610121565b8063149615cd116100f4578063149615cd146101c057806323b872dd146101dc57806342842e0e146101f85780636352211e1461021457806370a082311461024457610121565b806301ffc9a71461012657806306fdde0314610156578063081812fc14610174578063095ea7b3146101a4575b600080fd5b610140600480360381019061013b9190611e36565b6103ba565b60405161014d9190612711565b60405180910390f35b61015e61049c565b60405161016b919061272c565b60405180910390f35b61018e60048036038101906101899190611e88565b61052e565b60405161019b91906126aa565b60405180910390f35b6101be60048036038101906101b99190611dfa565b6105b3565b005b6101da60048036038101906101d59190611eb1565b6106cb565b005b6101f660048036038101906101f19190611cf4565b610727565b005b610212600480360381019061020d9190611cf4565b610787565b005b61022e60048036038101906102299190611e88565b6107a7565b60405161023b91906126aa565b60405180910390f35b61025e60048036038101906102599190611c8f565b610859565b60405161026b9190612969565b60405180910390f35b61027c610911565b005b610286610999565b60405161029391906126aa565b60405180910390f35b6102a46109c3565b6040516102b1919061272c565b60405180910390f35b6102d460048036038101906102cf9190611dbe565b610a55565b005b6102f060048036038101906102eb9190611f00565b610bd6565b005b61030c60048036038101906103079190611d43565b610cee565b005b61032860048036038101906103239190611e88565b610d50565b604051610335919061294e565b60405180910390f35b61035860048036038101906103539190611e88565b610daf565b604051610365919061272c565b60405180910390f35b61038860048036038101906103839190611cb8565b610e56565b6040516103959190612711565b60405180910390f35b6103b860048036038101906103b39190611c8f565b610eea565b005b60007f80ac58cd000000000000000000000000000000000000000000000000000000007bffffffffffffffffffffffffffffffffffffffffffffffffffffffff1916827bffffffffffffffffffffffffffffffffffffffffffffffffffffffff1916148061048557507f5b5e139f000000000000000000000000000000000000000000000000000000007bffffffffffffffffffffffffffffffffffffffffffffffffffffffff1916827bffffffffffffffffffffffffffffffffffffffffffffffffffffffff1916145b80610495575061049482610fe2565b5b9050919050565b6060600080546104ab90612b99565b80601f01602080910402602001604051908101604052809291908181526020018280546104d790612b99565b80156105245780601f106104f957610100808354040283529160200191610524565b820191906000526020600020905b81548152906001019060200180831161050757829003601f168201915b5050505050905090565b60006105398261104c565b610578576040517f08c379a000000000000000000000000000000000000000000000000000000000815260040161056f9061288e565b60405180910390fd5b6004600083815260200190815260200160002060009054906101000a900473ffffffffffffffffffffffffffffffffffffffff169050919050565b60006105be826107a7565b90508073ffffffffffffffffffffffffffffffffffffffff168373ffffffffffffffffffffffffffffffffffffffff16141561062f576040517f08c379a00000000000000000000000000000000000000000000000000000000081526004016106269061290e565b60405180910390fd5b8073ffffffffffffffffffffffffffffffffffffffff1661064e6110b8565b73ffffffffffffffffffffffffffffffffffffffff16148061067d575061067c816106776110b8565b610e56565b5b6106bc576040517f08c379a00000000000000000000000000000000000000000000000000000000081526004016106b39061280e565b60405180910390fd5b6106c683836110c0565b505050565b6000600860008581526020019081526020016000209050828160000160008282546106f69190612a28565b92505081905550818160030160008282546107119190612a28565b9250508190555042816004018190555050505050565b6107386107326110b8565b82611179565b610777576040517f08c379a000000000000000000000000000000000000000000000000000000000815260040161076e9061292e565b60405180910390fd5b610782838383611257565b505050565b6107a283838360405180602001604052806000815250610cee565b505050565b6000806002600084815260200190815260200160002060009054906101000a900473ffffffffffffffffffffffffffffffffffffffff169050600073ffffffffffffffffffffffffffffffffffffffff168173ffffffffffffffffffffffffffffffffffffffff161415610850576040517f08c379a00000000000000000000000000000000000000000000000000000000081526004016108479061284e565b60405180910390fd5b80915050919050565b60008073ffffffffffffffffffffffffffffffffffffffff168273ffffffffffffffffffffffffffffffffffffffff1614156108ca576040517f08c379a00000000000000000000000000000000000000000000000000000000081526004016108c19061282e565b60405180910390fd5b600360008373ffffffffffffffffffffffffffffffffffffffff1673ffffffffffffffffffffffffffffffffffffffff168152602001908152602001600020549050919050565b6109196110b8565b73ffffffffffffffffffffffffffffffffffffffff16610937610999565b73ffffffffffffffffffffffffffffffffffffffff161461098d576040517f08c379a0000000000000000000000000000000000000000000000000000000008152600401610984906128ae565b60405180910390fd5b61099760006114b3565b565b6000600660009054906101000a900473ffffffffffffffffffffffffffffffffffffffff16905090565b6060600180546109d290612b99565b80601f01602080910402602001604051908101604052809291908181526020018280546109fe90612b99565b8015610a4b5780601f10610a2057610100808354040283529160200191610a4b565b820191906000526020600020905b815481529060010190602001808311610a2e57829003601f168201915b5050505050905090565b610a5d6110b8565b73ffffffffffffffffffffffffffffffffffffffff168273ffffffffffffffffffffffffffffffffffffffff161415610acb576040517f08c379a0000000000000000000000000000000000000000000000000000000008152600401610ac2906127ce565b60405180910390fd5b8060056000610ad86110b8565b73ffffffffffffffffffffffffffffffffffffffff1673ffffffffffffffffffffffffffffffffffffffff16815260200190815260200160002060008473ffffffffffffffffffffffffffffffffffffffff1673ffffffffffffffffffffffffffffffffffffffff16815260200190815260200160002060006101000a81548160ff0219169083151502179055508173ffffffffffffffffffffffffffffffffffffffff16610b856110b8565b73ffffffffffffffffffffffffffffffffffffffff167f17307eab39ab6107e8899845ad3d59bd9653f200f220920489ca2b5937696c3183604051610bca9190612711565b60405180910390a35050565b610bde6110b8565b73ffffffffffffffffffffffffffffffffffffffff16610bfc610999565b73ffffffffffffffffffffffffffffffffffffffff1614610c52576040517f08c379a0000000000000000000000000000000000000000000000000000000008152600401610c49906128ae565b60405180910390fd5b6040518060a00160405280868152602001858152602001848152602001838152602001828152506008600060075481526020019081526020016000206000820151816000015560208201518160010155604082015181600201556060820151816003015560808201518160040155905050610ccf33600754611579565b60076000815480929190610ce290612bcb565b91905055505050505050565b610cff610cf96110b8565b83611179565b610d3e576040517f08c379a0000000000000000000000000000000000000000000000000000000008152600401610d359061292e565b60405180910390fd5b610d4a84848484611597565b50505050565b610d58611b8f565b600860008381526020019081526020016000206040518060a0016040529081600082015481526020016001820154815260200160028201548152602001600382015481526020016004820154815250509050919050565b6060610dba8261104c565b610df9576040517f08c379a0000000000000000000000000000000000000000000000000000000008152600401610df0906128ee565b60405180910390fd5b6000610e036115f3565b90506000815111610e235760405180602001604052806000815250610e4e565b80610e2d8461160a565b604051602001610e3e929190612686565b6040516020818303038152906040525b915050919050565b6000600560008473ffffffffffffffffffffffffffffffffffffffff1673ffffffffffffffffffffffffffffffffffffffff16815260200190815260200160002060008373ffffffffffffffffffffffffffffffffffffffff1673ffffffffffffffffffffffffffffffffffffffff16815260200190815260200160002060009054906101000a900460ff16905092915050565b610ef26110b8565b73ffffffffffffffffffffffffffffffffffffffff16610f10610999565b73ffffffffffffffffffffffffffffffffffffffff1614610f66576040517f08c379a0000000000000000000000000000000000000000000000000000000008152600401610f5d906128ae565b60405180910390fd5b600073ffffffffffffffffffffffffffffffffffffffff168173ffffffffffffffffffffffffffffffffffffffff161415610fd6576040517f08c379a0000000000000000000000000000000000000000000000000000000008152600401610fcd9061276e565b60405180910390fd5b610fdf816114b3565b50565b60007f01ffc9a7000000000000000000000000000000000000000000000000000000007bffffffffffffffffffffffffffffffffffffffffffffffffffffffff1916827bffffffffffffffffffffffffffffffffffffffffffffffffffffffff1916149050919050565b60008073ffffffffffffffffffffffffffffffffffffffff166002600084815260200190815260200160002060009054906101000a900473ffffffffffffffffffffffffffffffffffffffff1673ffffffffffffffffffffffffffffffffffffffff1614159050919050565b600033905090565b816004600083815260200190815260200160002060006101000a81548173ffffffffffffffffffffffffffffffffffffffff021916908373ffffffffffffffffffffffffffffffffffffffff160217905550808273ffffffffffffffffffffffffffffffffffffffff16611133836107a7565b73ffffffffffffffffffffffffffffffffffffffff167f8c5be1e5ebec7d5bd14f71427d1e84f3dd0314c0f7b2291e5b200ac8c7c3b92560405160405180910390a45050565b60006111848261104c565b6111c3576040517f08c379a00000000000000000000000000000000000000000000000000000000081526004016111ba906127ee565b60405180910390fd5b60006111ce836107a7565b90508073ffffffffffffffffffffffffffffffffffffffff168473ffffffffffffffffffffffffffffffffffffffff16148061123d57508373ffffffffffffffffffffffffffffffffffffffff166112258461052e565b73ffffffffffffffffffffffffffffffffffffffff16145b8061124e575061124d8185610e56565b5b91505092915050565b8273ffffffffffffffffffffffffffffffffffffffff16611277826107a7565b73ffffffffffffffffffffffffffffffffffffffff16146112cd576040517f08c379a00000000000000000000000000000000000000000000000000000000081526004016112c4906128ce565b60405180910390fd5b600073ffffffffffffffffffffffffffffffffffffffff168273ffffffffffffffffffffffffffffffffffffffff16141561133d576040517f08c379a0000000000000000000000000000000000000000000000000000000008152600401611334906127ae565b60405180910390fd5b6113488383836117b7565b6113536000826110c0565b6001600360008573ffffffffffffffffffffffffffffffffffffffff1673ffffffffffffffffffffffffffffffffffffffff16815260200190815260200160002060008282546113a39190612aaf565b925050819055506001600360008473ffffffffffffffffffffffffffffffffffffffff1673ffffffffffffffffffffffffffffffffffffffff16815260200190815260200160002060008282546113fa9190612a28565b92505081905550816002600083815260200190815260200160002060006101000a81548173ffffffffffffffffffffffffffffffffffffffff021916908373ffffffffffffffffffffffffffffffffffffffff160217905550808273ffffffffffffffffffffffffffffffffffffffff168473ffffffffffffffffffffffffffffffffffffffff167fddf252ad1be2c89b69c2b068fc378daa952ba7f163c4a11628f55a4df523b3ef60405160405180910390a4505050565b6000600660009054906101000a900473ffffffffffffffffffffffffffffffffffffffff16905081600660006101000a81548173ffffffffffffffffffffffffffffffffffffffff021916908373ffffffffffffffffffffffffffffffffffffffff1602179055508173ffffffffffffffffffffffffffffffffffffffff168173ffffffffffffffffffffffffffffffffffffffff167f8be0079c531659141344cd1fd0a4f28419497f9722a3daafe3b4186f6b6457e060405160405180910390a35050565b6115938282604051806020016040528060008152506117bc565b5050565b6115a2848484611257565b6115ae84848484611817565b6115ed576040517f08c379a00000000000000000000000000000000000000000000000000000000081526004016115e49061274e565b60405180910390fd5b50505050565b606060405180602001604052806000815250905090565b60606000821415611652576040518060400160405280600181526020017f300000000000000000000000000000000000000000000000000000000000000081525090506117b2565b600082905060005b6000821461168457808061166d90612bcb565b915050600a8261167d9190612a7e565b915061165a565b60008167ffffffffffffffff8111156116c6577f4e487b7100000000000000000000000000000000000000000000000000000000600052604160045260246000fd5b6040519080825280601f01601f1916602001820160405280156116f85781602001600182028036833780820191505090505b5090505b600085146117ab576001826117119190612aaf565b9150600a856117209190612c14565b603061172c9190612a28565b60f81b818381518110611768577f4e487b7100000000000000000000000000000000000000000000000000000000600052603260045260246000fd5b60200101907effffffffffffffffffffffffffffffffffffffffffffffffffffffffffffff1916908160001a905350600a856117a49190612a7e565b94506116fc565b8093505050505b919050565b505050565b6117c683836119ae565b6117d36000848484611817565b611812576040517f08c379a00000000000000000000000000000000000000000000000000000000081526004016118099061274e565b60405180910390fd5b505050565b60006118388473ffffffffffffffffffffffffffffffffffffffff16611b7c565b156119a1578373ffffffffffffffffffffffffffffffffffffffff1663150b7a026118616110b8565b8786866040518563ffffffff1660e01b815260040161188394939291906126c5565b602060405180830381600087803b15801561189d57600080fd5b505af19250505080156118ce57506040513d601f19601f820116820180604052508101906118cb9190611e5f565b60015b611951573d80600081146118fe576040519150601f19603f3d011682016040523d82523d6000602084013e611903565b606091505b50600081511415611949576040517f08c379a00000000000000000000000000000000000000000000000000000000081526004016119409061274e565b60405180910390fd5b805181602001fd5b63150b7a0260e01b7bffffffffffffffffffffffffffffffffffffffffffffffffffffffff1916817bffffffffffffffffffffffffffffffffffffffffffffffffffffffff1916149150506119a6565b600190505b949350505050565b600073ffffffffffffffffffffffffffffffffffffffff168273ffffffffffffffffffffffffffffffffffffffff161415611a1e576040517f08c379a0000000000000000000000000000000000000000000000000000000008152600401611a159061286e565b60405180910390fd5b611a278161104c565b15611a67576040517f08c379a0000000000000000000000000000000000000000000000000000000008152600401611a5e9061278e565b60405180910390fd5b611a73600083836117b7565b6001600360008473ffffffffffffffffffffffffffffffffffffffff1673ffffffffffffffffffffffffffffffffffffffff1681526020019081526020016000206000828254611ac39190612a28565b92505081905550816002600083815260200190815260200160002060006101000a81548173ffffffffffffffffffffffffffffffffffffffff021916908373ffffffffffffffffffffffffffffffffffffffff160217905550808273ffffffffffffffffffffffffffffffffffffffff16600073ffffffffffffffffffffffffffffffffffffffff167fddf252ad1be2c89b69c2b068fc378daa952ba7f163c4a11628f55a4df523b3ef60405160405180910390a45050565b600080823b905060008111915050919050565b6040518060a0016040528060008152602001600081526020016000815260200160008152602001600081525090565b6000611bd1611bcc846129b5565b612984565b905082815260208101848484011115611be957600080fd5b611bf4848285612b57565b509392505050565b600081359050611c0b81612d12565b92915050565b600081359050611c2081612d29565b92915050565b600081359050611c3581612d40565b92915050565b600081519050611c4a81612d40565b92915050565b600082601f830112611c6157600080fd5b8135611c71848260208601611bbe565b91505092915050565b600081359050611c8981612d57565b92915050565b600060208284031215611ca157600080fd5b6000611caf84828501611bfc565b91505092915050565b60008060408385031215611ccb57600080fd5b6000611cd985828601611bfc565b9250506020611cea85828601611bfc565b9150509250929050565b600080600060608486031215611d0957600080fd5b6000611d1786828701611bfc565b9350506020611d2886828701611bfc565b9250506040611d3986828701611c7a565b9150509250925092565b60008060008060808587031215611d5957600080fd5b6000611d6787828801611bfc565b9450506020611d7887828801611bfc565b9350506040611d8987828801611c7a565b925050606085013567ffffffffffffffff811115611da657600080fd5b611db287828801611c50565b91505092959194509250565b60008060408385031215611dd157600080fd5b6000611ddf85828601611bfc565b9250506020611df085828601611c11565b9150509250929050565b60008060408385031215611e0d57600080fd5b6000611e1b85828601611bfc565b9250506020611e2c85828601611c7a565b9150509250929050565b600060208284031215611e4857600080fd5b6000611e5684828501611c26565b91505092915050565b600060208284031215611e7157600080fd5b6000611e7f84828501611c3b565b91505092915050565b600060208284031215611e9a57600080fd5b6000611ea884828501611c7a565b91505092915050565b600080600060608486031215611ec657600080fd5b6000611ed486828701611c7a565b9350506020611ee586828701611c7a565b9250506040611ef686828701611c7a565b9150509250925092565b600080600080600060a08688031215611f1857600080fd5b6000611f2688828901611c7a565b9550506020611f3788828901611c7a565b9450506040611f4888828901611c7a565b9350506060611f5988828901611c7a565b9250506080611f6a88828901611c7a565b9150509295509295909350565b611f8081612ae3565b82525050565b611f8f81612af5565b82525050565b6000611fa0826129e5565b611faa81856129fb565b9350611fba818560208601612b66565b611fc381612d01565b840191505092915050565b6000611fd9826129f0565b611fe38185612a0c565b9350611ff3818560208601612b66565b611ffc81612d01565b840191505092915050565b6000612012826129f0565b61201c8185612a1d565b935061202c818560208601612b66565b80840191505092915050565b6000612045603283612a0c565b91507f4552433732313a207472616e7366657220746f206e6f6e20455243373231526560008301527f63656976657220696d706c656d656e74657200000000000000000000000000006020830152604082019050919050565b60006120ab602683612a0c565b91507f4f776e61626c653a206e6577206f776e657220697320746865207a65726f206160008301527f64647265737300000000000000000000000000000000000000000000000000006020830152604082019050919050565b6000612111601c83612a0c565b91507f4552433732313a20746f6b656e20616c7265616479206d696e746564000000006000830152602082019050919050565b6000612151602483612a0c565b91507f4552433732313a207472616e7366657220746f20746865207a65726f2061646460008301527f72657373000000000000000000000000000000000000000000000000000000006020830152604082019050919050565b60006121b7601983612a0c565b91507f4552433732313a20617070726f766520746f2063616c6c6572000000000000006000830152602082019050919050565b60006121f7602c83612a0c565b91507f4552433732313a206f70657261746f7220717565727920666f72206e6f6e657860008301527f697374656e7420746f6b656e00000000000000000000000000000000000000006020830152604082019050919050565b600061225d603883612a0c565b91507f4552433732313a20617070726f76652063616c6c6572206973206e6f74206f7760008301527f6e6572206e6f7220617070726f76656420666f7220616c6c00000000000000006020830152604082019050919050565b60006122c3602a83612a0c565b91507f4552433732313a2062616c616e636520717565727920666f7220746865207a6560008301527f726f2061646472657373000000000000000000000000000000000000000000006020830152604082019050919050565b6000612329602983612a0c565b91507f4552433732313a206f776e657220717565727920666f72206e6f6e657869737460008301527f656e7420746f6b656e00000000000000000000000000000000000000000000006020830152604082019050919050565b600061238f602083612a0c565b91507f4552433732313a206d696e7420746f20746865207a65726f20616464726573736000830152602082019050919050565b60006123cf602c83612a0c565b91507f4552433732313a20617070726f76656420717565727920666f72206e6f6e657860008301527f697374656e7420746f6b656e00000000000000000000000000000000000000006020830152604082019050919050565b6000612435602083612a0c565b91507f4f776e61626c653a2063616c6c6572206973206e6f7420746865206f776e65726000830152602082019050919050565b6000612475602983612a0c565b91507f4552433732313a207472616e73666572206f6620746f6b656e2074686174206960008301527f73206e6f74206f776e00000000000000000000000000000000000000000000006020830152604082019050919050565b60006124db602f83612a0c565b91507f4552433732314d657461646174613a2055524920717565727920666f72206e6f60008301527f6e6578697374656e7420746f6b656e00000000000000000000000000000000006020830152604082019050919050565b6000612541602183612a0c565b91507f4552433732313a20617070726f76616c20746f2063757272656e74206f776e6560008301527f72000000000000000000000000000000000000000000000000000000000000006020830152604082019050919050565b60006125a7603183612a0c565b91507f4552433732313a207472616e736665722063616c6c6572206973206e6f74206f60008301527f776e6572206e6f7220617070726f7665640000000000000000000000000000006020830152604082019050919050565b60a0820160008201516126166000850182612668565b5060208201516126296020850182612668565b50604082015161263c6040850182612668565b50606082015161264f6060850182612668565b5060808201516126626080850182612668565b50505050565b61267181612b4d565b82525050565b61268081612b4d565b82525050565b60006126928285612007565b915061269e8284612007565b91508190509392505050565b60006020820190506126bf6000830184611f77565b92915050565b60006080820190506126da6000830187611f77565b6126e76020830186611f77565b6126f46040830185612677565b81810360608301526127068184611f95565b905095945050505050565b60006020820190506127266000830184611f86565b92915050565b600060208201905081810360008301526127468184611fce565b905092915050565b6000602082019050818103600083015261276781612038565b9050919050565b600060208201905081810360008301526127878161209e565b9050919050565b600060208201905081810360008301526127a781612104565b9050919050565b600060208201905081810360008301526127c781612144565b9050919050565b600060208201905081810360008301526127e7816121aa565b9050919050565b60006020820190508181036000830152612807816121ea565b9050919050565b6000602082019050818103600083015261282781612250565b9050919050565b60006020820190508181036000830152612847816122b6565b9050919050565b600060208201905081810360008301526128678161231c565b9050919050565b6000602082019050818103600083015261288781612382565b9050919050565b600060208201905081810360008301526128a7816123c2565b9050919050565b600060208201905081810360008301526128c781612428565b9050919050565b600060208201905081810360008301526128e781612468565b9050919050565b60006020820190508181036000830152612907816124ce565b9050919050565b6000602082019050818103600083015261292781612534565b9050919050565b600060208201905081810360008301526129478161259a565b9050919050565b600060a0820190506129636000830184612600565b92915050565b600060208201905061297e6000830184612677565b92915050565b6000604051905081810181811067ffffffffffffffff821117156129ab576129aa612cd2565b5b8060405250919050565b600067ffffffffffffffff8211156129d0576129cf612cd2565b5b601f19601f8301169050602081019050919050565b600081519050919050565b600081519050919050565b600082825260208201905092915050565b600082825260208201905092915050565b600081905092915050565b6000612a3382612b4d565b9150612a3e83612b4d565b9250827fffffffffffffffffffffffffffffffffffffffffffffffffffffffffffffffff03821115612a7357612a72612c45565b5b828201905092915050565b6000612a8982612b4d565b9150612a9483612b4d565b925082612aa457612aa3612c74565b5b828204905092915050565b6000612aba82612b4d565b9150612ac583612b4d565b925082821015612ad857612ad7612c45565b5b828203905092915050565b6000612aee82612b2d565b9050919050565b60008115159050919050565b60007fffffffff0000000000000000000000000000000000000000000000000000000082169050919050565b600073ffffffffffffffffffffffffffffffffffffffff82169050919050565b6000819050919050565b82818337600083830152505050565b60005b83811015612b84578082015181840152602081019050612b69565b83811115612b93576000848401525b50505050565b60006002820490506001821680612bb157607f821691505b60208210811415612bc557612bc4612ca3565b5b50919050565b6000612bd682612b4d565b91507fffffffffffffffffffffffffffffffffffffffffffffffffffffffffffffffff821415612c0957612c08612c45565b5b600182019050919050565b6000612c1f82612b4d565b9150612c2a83612b4d565b925082612c3a57612c39612c74565b5b828206905092915050565b7f4e487b7100000000000000000000000000000000000000000000000000000000600052601160045260246000fd5b7f4e487b7100000000000000000000000000000000000000000000000000000000600052601260045260246000fd5b7f4e487b7100000000000000000000000000000000000000000000000000000000600052602260045260246000fd5b7f4e487b7100000000000000000000000000000000000000000000000000000000600052604160045260246000fd5b6000601f19601f8301169050919050565b612d1b81612ae3565b8114612d2657600080fd5b50565b612d3281612af5565b8114612d3d57600080fd5b50565b612d4981612b01565b8114612d5457600080fd5b50565b612d6081612b4d565b8114612d6b57600080fd5b5056fea26469706673582212200fa43e2df6e3f2cc74dea6acccd4d2daa3879dd753e9d3cb3f424c242f94faee64736f6c63430008000033",
  "immutableReferences": {},
  "source": "// SPDX-License-Identifier: MIT\npragma solidity >=0.4.22 <0.9.0;\n\nimport \"../node_modules/@openzeppelin/contracts/token/ERC721/ERC721.sol\";\nimport \"../node_modules/@openzeppelin/contracts/access/Ownable.sol\";\n\ncontract Token is ERC721, Ownable {\n  struct Athlete {\n    uint256 caloriesBurned;\n    uint256 weight;\n    uint256 height;\n    uint256 distanceTravelled;\n    uint256 lastStreak;\n  }\n\n  uint nextId = 0;\n\n  mapping(uint256 => Athlete) _athleteDetails;\n\n  constructor(string memory name, string memory symbol) ERC721(name, symbol) {\n\n  }\n\n  function getTokenDetails(uint256 tokenId) public view returns (Athlete memory) {\n    return _athleteDetails[tokenId];\n  }\n\n  function mint(uint256 caloriesBurned, uint256 weight, uint256 height, uint256 distanceTravelled, uint256 lastStreak) public onlyOwner {\n    _athleteDetails[nextId] = Athlete(caloriesBurned, weight, height, distanceTravelled, lastStreak);\n    _safeMint(msg.sender, nextId);\n    nextId++;\n  }\n\n  function workout(uint256 tokenId, uint burned, uint distance) public {\n    Athlete storage athlete = _athleteDetails[tokenId];\n    // require(msg.sender == athlete.owner);\n    athlete.caloriesBurned += burned;\n    athlete.distanceTravelled += distance;\n    athlete.lastStreak = block.timestamp;\n  }\n}",
  "sourcePath": "/Users/bharath/sourcecode/HackZurich/nft/contracts/Token.sol",
  "compiler": {
    "name": "solc",
    "version": "0.8.0+commit.c7dfd78e.Emscripten.clang"
  },
  "schemaVersion": "3.4.3",
  "updatedAt": "2021-09-24T23:42:03.850Z",
  "networkType": "ethereum",
  "devdoc": {
    "kind": "dev",
    "methods": {
      "approve(address,uint256)": {
        "details": "See {IERC721-approve}."
      },
      "balanceOf(address)": {
        "details": "See {IERC721-balanceOf}."
      },
      "getApproved(uint256)": {
        "details": "See {IERC721-getApproved}."
      },
      "isApprovedForAll(address,address)": {
        "details": "See {IERC721-isApprovedForAll}."
      },
      "name()": {
        "details": "See {IERC721Metadata-name}."
      },
      "owner()": {
        "details": "Returns the address of the current owner."
      },
      "ownerOf(uint256)": {
        "details": "See {IERC721-ownerOf}."
      },
      "renounceOwnership()": {
        "details": "Leaves the contract without owner. It will not be possible to call `onlyOwner` functions anymore. Can only be called by the current owner. NOTE: Renouncing ownership will leave the contract without an owner, thereby removing any functionality that is only available to the owner."
      },
      "safeTransferFrom(address,address,uint256)": {
        "details": "See {IERC721-safeTransferFrom}."
      },
      "safeTransferFrom(address,address,uint256,bytes)": {
        "details": "See {IERC721-safeTransferFrom}."
      },
      "setApprovalForAll(address,bool)": {
        "details": "See {IERC721-setApprovalForAll}."
      },
      "supportsInterface(bytes4)": {
        "details": "See {IERC165-supportsInterface}."
      },
      "symbol()": {
        "details": "See {IERC721Metadata-symbol}."
      },
      "tokenURI(uint256)": {
        "details": "See {IERC721Metadata-tokenURI}."
      },
      "transferFrom(address,address,uint256)": {
        "details": "See {IERC721-transferFrom}."
      },
      "transferOwnership(address)": {
        "details": "Transfers ownership of the contract to a new account (`newOwner`). Can only be called by the current owner."
      }
    },
    "version": 1
  },
  "userdoc": {
    "kind": "user",
    "methods": {},
    "version": 1
  }
}