{
  "contractName": "Token",
  "abi": [
    {
      "inputs": [
        {
          "internalType": "string",
          "name": "name",
          "type": "string"
        },
        {
          "internalType": "string",
          "name": "symbol",
          "type": "string"
        }
      ],
      "stateMutability": "nonpayable",
      "type": "constructor"
    },
    {
      "anonymous": false,
      "inputs": [
        {
          "indexed": true,
          "internalType": "address",
          "name": "owner",
          "type": "address"
        },
        {
          "indexed": true,
          "internalType": "address",
          "name": "approved",
          "type": "address"
        },
        {
          "indexed": true,
          "internalType": "uint256",
          "name": "tokenId",
          "type": "uint256"
        }
      ],
      "name": "Approval",
      "type": "event"
    },
    {
      "anonymous": false,
      "inputs": [
        {
          "indexed": true,
          "internalType": "address",
          "name": "owner",
          "type": "address"
        },
        {
          "indexed": true,
          "internalType": "address",
          "name": "operator",
          "type": "address"
        },
        {
          "indexed": false,
          "internalType": "bool",
          "name": "approved",
          "type": "bool"
        }
      ],
      "name": "ApprovalForAll",
      "type": "event"
    },
    {
      "anonymous": false,
      "inputs": [
        {
          "indexed": true,
          "internalType": "address",
          "name": "previousOwner",
          "type": "address"
        },
        {
          "indexed": true,
          "internalType": "address",
          "name": "newOwner",
          "type": "address"
        }
      ],
      "name": "OwnershipTransferred",
      "type": "event"
    },
    {
      "anonymous": false,
      "inputs": [
        {
          "indexed": true,
          "internalType": "address",
          "name": "from",
          "type": "address"
        },
        {
          "indexed": true,
          "internalType": "address",
          "name": "to",
          "type": "address"
        },
        {
          "indexed": true,
          "internalType": "uint256",
          "name": "tokenId",
          "type": "uint256"
        }
      ],
      "name": "Transfer",
      "type": "event"
    },
    {
      "inputs": [
        {
          "internalType": "address",
          "name": "to",
          "type": "address"
        },
        {
          "internalType": "uint256",
          "name": "tokenId",
          "type": "uint256"
        }
      ],
      "name": "approve",
      "outputs": [],
      "stateMutability": "nonpayable",
      "type": "function"
    },
    {
      "inputs": [
        {
          "internalType": "address",
          "name": "owner",
          "type": "address"
        }
      ],
      "name": "balanceOf",
      "outputs": [
        {
          "internalType": "uint256",
          "name": "",
          "type": "uint256"
        }
      ],
      "stateMutability": "view",
      "type": "function",
      "constant": true
    },
    {
      "inputs": [
        {
          "internalType": "uint256",
          "name": "tokenId",
          "type": "uint256"
        }
      ],
      "name": "getApproved",
      "outputs": [
        {
          "internalType": "address",
          "name": "",
          "type": "address"
        }
      ],
      "stateMutability": "view",
      "type": "function",
      "constant": true
    },
    {
      "inputs": [
        {
          "internalType": "address",
          "name": "owner",
          "type": "address"
        },
        {
          "internalType": "address",
          "name": "operator",
          "type": "address"
        }
      ],
      "name": "isApprovedForAll",
      "outputs": [
        {
          "internalType": "bool",
          "name": "",
          "type": "bool"
        }
      ],
      "stateMutability": "view",
      "type": "function",
      "constant": true
    },
    {
      "inputs": [],
      "name": "name",
      "outputs": [
        {
          "internalType": "string",
          "name": "",
          "type": "string"
        }
      ],
      "stateMutability": "view",
      "type": "function",
      "constant": true
    },
    {
      "inputs": [],
      "name": "owner",
      "outputs": [
        {
          "internalType": "address",
          "name": "",
          "type": "address"
        }
      ],
      "stateMutability": "view",
      "type": "function",
      "constant": true
    },
    {
      "inputs": [
        {
          "internalType": "uint256",
          "name": "tokenId",
          "type": "uint256"
        }
      ],
      "name": "ownerOf",
      "outputs": [
        {
          "internalType": "address",
          "name": "",
          "type": "address"
        }
      ],
      "stateMutability": "view",
      "type": "function",
      "constant": true
    },
    {
      "inputs": [],
      "name": "renounceOwnership",
      "outputs": [],
      "stateMutability": "nonpayable",
      "type": "function"
    },
    {
      "inputs": [
        {
          "internalType": "address",
          "name": "from",
          "type": "address"
        },
        {
          "internalType": "address",
          "name": "to",
          "type": "address"
        },
        {
          "internalType": "uint256",
          "name": "tokenId",
          "type": "uint256"
        }
      ],
      "name": "safeTransferFrom",
      "outputs": [],
      "stateMutability": "nonpayable",
      "type": "function"
    },
    {
      "inputs": [
        {
          "internalType": "address",
          "name": "from",
          "type": "address"
        },
        {
          "internalType": "address",
          "name": "to",
          "type": "address"
        },
        {
          "internalType": "uint256",
          "name": "tokenId",
          "type": "uint256"
        },
        {
          "internalType": "bytes",
          "name": "_data",
          "type": "bytes"
        }
      ],
      "name": "safeTransferFrom",
      "outputs": [],
      "stateMutability": "nonpayable",
      "type": "function"
    },
    {
      "inputs": [
        {
          "internalType": "address",
          "name": "operator",
          "type": "address"
        },
        {
          "internalType": "bool",
          "name": "approved",
          "type": "bool"
        }
      ],
      "name": "setApprovalForAll",
      "outputs": [],
      "stateMutability": "nonpayable",
      "type": "function"
    },
    {
      "inputs": [
        {
          "internalType": "bytes4",
          "name": "interfaceId",
          "type": "bytes4"
        }
      ],
      "name": "supportsInterface",
      "outputs": [
        {
          "internalType": "bool",
          "name": "",
          "type": "bool"
        }
      ],
      "stateMutability": "view",
      "type": "function",
      "constant": true
    },
    {
      "inputs": [],
      "name": "symbol",
      "outputs": [
        {
          "internalType": "string",
          "name": "",
          "type": "string"
        }
      ],
      "stateMutability": "view",
      "type": "function",
      "constant": true
    },
    {
      "inputs": [
        {
          "internalType": "uint256",
          "name": "tokenId",
          "type": "uint256"
        }
      ],
      "name": "tokenURI",
      "outputs": [
        {
          "internalType": "string",
          "name": "",
          "type": "string"
        }
      ],
      "stateMutability": "view",
      "type": "function",
      "constant": true
    },
    {
      "inputs": [
        {
          "internalType": "address",
          "name": "from",
          "type": "address"
        },
        {
          "internalType": "address",
          "name": "to",
          "type": "address"
        },
        {
          "internalType": "uint256",
          "name": "tokenId",
          "type": "uint256"
        }
      ],
      "name": "transferFrom",
      "outputs": [],
      "stateMutability": "nonpayable",
      "type": "function"
    },
    {
      "inputs": [
        {
          "internalType": "address",
          "name": "newOwner",
          "type": "address"
        }
      ],
      "name": "transferOwnership",
      "outputs": [],
      "stateMutability": "nonpayable",
      "type": "function"
    },
    {
      "inputs": [
        {
          "internalType": "uint256",
          "name": "tokenId",
          "type": "uint256"
        }
      ],
      "name": "getTokenDetails",
      "outputs": [
        {
          "components": [
            {
              "internalType": "uint256",
              "name": "id",
              "type": "uint256"
            },
            {
              "internalType": "uint256",
              "name": "caloriesBurned",
              "type": "uint256"
            },
            {
              "internalType": "uint256",
              "name": "weight",
              "type": "uint256"
            },
            {
              "internalType": "uint256",
              "name": "height",
              "type": "uint256"
            },
            {
              "internalType": "uint256",
              "name": "distanceTravelled",
              "type": "uint256"
            },
            {
              "internalType": "uint256",
              "name": "lastStreak",
              "type": "uint256"
            },
            {
              "internalType": "uint256",
              "name": "stage",
              "type": "uint256"
            },
            {
              "internalType": "uint256",
              "name": "parentOne",
              "type": "uint256"
            },
            {
              "internalType": "uint256",
              "name": "parentTwo",
              "type": "uint256"
            }
          ],
          "internalType": "struct Token.Athlete",
          "name": "",
          "type": "tuple"
        }
      ],
      "stateMutability": "view",
      "type": "function",
      "constant": true
    },
    {
      "inputs": [
        {
          "internalType": "uint256",
          "name": "id",
          "type": "uint256"
        },
        {
          "internalType": "uint256",
          "name": "caloriesBurned",
          "type": "uint256"
        },
        {
          "internalType": "uint256",
          "name": "weight",
          "type": "uint256"
        },
        {
          "internalType": "uint256",
          "name": "height",
          "type": "uint256"
        },
        {
          "internalType": "uint256",
          "name": "distanceTravelled",
          "type": "uint256"
        },
        {
          "internalType": "uint256",
          "name": "lastStreak",
          "type": "uint256"
        },
        {
          "internalType": "uint256",
          "name": "stage",
          "type": "uint256"
        },
        {
          "internalType": "uint256",
          "name": "p1",
          "type": "uint256"
        },
        {
          "internalType": "uint256",
          "name": "p2",
          "type": "uint256"
        }
      ],
      "name": "mint",
      "outputs": [],
      "stateMutability": "nonpayable",
      "type": "function"
    },
    {
      "inputs": [
        {
          "internalType": "uint256",
          "name": "tokenId",
          "type": "uint256"
        },
        {
          "internalType": "uint256",
          "name": "id",
          "type": "uint256"
        },
        {
          "internalType": "uint256",
          "name": "burned",
          "type": "uint256"
        },
        {
          "internalType": "uint256",
          "name": "distance",
          "type": "uint256"
        }
      ],
      "name": "workout",
      "outputs": [],
      "stateMutability": "nonpayable",
      "type": "function"
    }
  ],
  "bytecode": "0x608060405260006007553480156200001657600080fd5b50604051620033323803806200333283398181016040528101906200003c91906200028a565b818181600090805190602001906200005692919062000168565b5080600190805190602001906200006f92919062000168565b50505062000092620000866200009a60201b60201c565b620000a260201b60201c565b50506200042e565b600033905090565b6000600660009054906101000a900473ffffffffffffffffffffffffffffffffffffffff16905081600660006101000a81548173ffffffffffffffffffffffffffffffffffffffff021916908373ffffffffffffffffffffffffffffffffffffffff1602179055508173ffffffffffffffffffffffffffffffffffffffff168173ffffffffffffffffffffffffffffffffffffffff167f8be0079c531659141344cd1fd0a4f28419497f9722a3daafe3b4186f6b6457e060405160405180910390a35050565b82805462000176906200039a565b90600052602060002090601f0160209004810192826200019a5760008555620001e6565b82601f10620001b557805160ff1916838001178555620001e6565b82800160010185558215620001e6579182015b82811115620001e5578251825591602001919060010190620001c8565b5b509050620001f59190620001f9565b5090565b5b8082111562000214576000816000905550600101620001fa565b5090565b60006200022f620002298462000331565b620002fd565b9050828152602081018484840111156200024857600080fd5b6200025584828562000364565b509392505050565b600082601f8301126200026f57600080fd5b81516200028184826020860162000218565b91505092915050565b600080604083850312156200029e57600080fd5b600083015167ffffffffffffffff811115620002b957600080fd5b620002c7858286016200025d565b925050602083015167ffffffffffffffff811115620002e557600080fd5b620002f3858286016200025d565b9150509250929050565b6000604051905081810181811067ffffffffffffffff82111715620003275762000326620003ff565b5b8060405250919050565b600067ffffffffffffffff8211156200034f576200034e620003ff565b5b601f19601f8301169050602081019050919050565b60005b838110156200038457808201518184015260208101905062000367565b8381111562000394576000848401525b50505050565b60006002820490506001821680620003b357607f821691505b60208210811415620003ca57620003c9620003d0565b5b50919050565b7f4e487b7100000000000000000000000000000000000000000000000000000000600052602260045260246000fd5b7f4e487b7100000000000000000000000000000000000000000000000000000000600052604160045260246000fd5b612ef4806200043e6000396000f3fe608060405234801561001057600080fd5b50600436106101215760003560e01c8063715018a6116100ad578063b88d4fde11610071578063b88d4fde146102f2578063c1e037281461030e578063c87b56dd1461033e578063e985e9c51461036e578063f2fde38b1461039e57610121565b8063715018a6146102745780638da5cb5b1461027e57806395d89b411461029c578063a22cb465146102ba578063a8b20432146102d657610121565b80631175424d116100f45780631175424d146101c057806323b872dd146101dc57806342842e0e146101f85780636352211e1461021457806370a082311461024457610121565b806301ffc9a71461012657806306fdde0314610156578063081812fc14610174578063095ea7b3146101a4575b600080fd5b610140600480360381019061013b9190611ed3565b6103ba565b60405161014d9190612860565b60405180910390f35b61015e61049c565b60405161016b919061287b565b60405180910390f35b61018e60048036038101906101899190611f25565b61052e565b60405161019b91906127f9565b60405180910390f35b6101be60048036038101906101b99190611e97565b6105b3565b005b6101da60048036038101906101d59190611fb1565b6106cb565b005b6101f660048036038101906101f19190611d91565b610829565b005b610212600480360381019061020d9190611d91565b610889565b005b61022e60048036038101906102299190611f25565b6108a9565b60405161023b91906127f9565b60405180910390f35b61025e60048036038101906102599190611d2c565b61095b565b60405161026b9190612ab9565b60405180910390f35b61027c610a13565b005b610286610a9b565b60405161029391906127f9565b60405180910390f35b6102a4610ac5565b6040516102b1919061287b565b60405180910390f35b6102d460048036038101906102cf9190611e5b565b610b57565b005b6102f060048036038101906102eb9190611f4e565b610cd8565b005b61030c60048036038101906103079190611de0565b610d45565b005b61032860048036038101906103239190611f25565b610da7565b6040516103359190612a9d565b60405180910390f35b61035860048036038101906103539190611f25565b610e2f565b604051610365919061287b565b60405180910390f35b61038860048036038101906103839190611d55565b610ed6565b6040516103959190612860565b60405180910390f35b6103b860048036038101906103b39190611d2c565b610f6a565b005b60007f80ac58cd000000000000000000000000000000000000000000000000000000007bffffffffffffffffffffffffffffffffffffffffffffffffffffffff1916827bffffffffffffffffffffffffffffffffffffffffffffffffffffffff1916148061048557507f5b5e139f000000000000000000000000000000000000000000000000000000007bffffffffffffffffffffffffffffffffffffffffffffffffffffffff1916827bffffffffffffffffffffffffffffffffffffffffffffffffffffffff1916145b80610495575061049482611062565b5b9050919050565b6060600080546104ab90612ce9565b80601f01602080910402602001604051908101604052809291908181526020018280546104d790612ce9565b80156105245780601f106104f957610100808354040283529160200191610524565b820191906000526020600020905b81548152906001019060200180831161050757829003601f168201915b5050505050905090565b6000610539826110cc565b610578576040517f08c379a000000000000000000000000000000000000000000000000000000000815260040161056f906129dd565b60405180910390fd5b6004600083815260200190815260200160002060009054906101000a900473ffffffffffffffffffffffffffffffffffffffff169050919050565b60006105be826108a9565b90508073ffffffffffffffffffffffffffffffffffffffff168373ffffffffffffffffffffffffffffffffffffffff16141561062f576040517f08c379a000000000000000000000000000000000000000000000000000000000815260040161062690612a5d565b60405180910390fd5b8073ffffffffffffffffffffffffffffffffffffffff1661064e611138565b73ffffffffffffffffffffffffffffffffffffffff16148061067d575061067c81610677611138565b610ed6565b5b6106bc576040517f08c379a00000000000000000000000000000000000000000000000000000000081526004016106b39061295d565b60405180910390fd5b6106c68383611140565b505050565b6106d3611138565b73ffffffffffffffffffffffffffffffffffffffff166106f1610a9b565b73ffffffffffffffffffffffffffffffffffffffff1614610747576040517f08c379a000000000000000000000000000000000000000000000000000000000815260040161073e906129fd565b60405180910390fd5b6040518061012001604052808a815260200189815260200188815260200187815260200186815260200185815260200184815260200183815260200182815250600860006007548152602001908152602001600020600082015181600001556020820151816001015560408201518160020155606082015181600301556080820151816004015560a0820151816005015560c0820151816006015560e082015181600701556101008201518160080155905050610806336007546111f9565b6007600081548092919061081990612d1b565b9190505550505050505050505050565b61083a610834611138565b82611217565b610879576040517f08c379a000000000000000000000000000000000000000000000000000000000815260040161087090612a7d565b60405180910390fd5b6108848383836112f5565b505050565b6108a483838360405180602001604052806000815250610d45565b505050565b6000806002600084815260200190815260200160002060009054906101000a900473ffffffffffffffffffffffffffffffffffffffff169050600073ffffffffffffffffffffffffffffffffffffffff168173ffffffffffffffffffffffffffffffffffffffff161415610952576040517f08c379a00000000000000000000000000000000000000000000000000000000081526004016109499061299d565b60405180910390fd5b80915050919050565b60008073ffffffffffffffffffffffffffffffffffffffff168273ffffffffffffffffffffffffffffffffffffffff1614156109cc576040517f08c379a00000000000000000000000000000000000000000000000000000000081526004016109c39061297d565b60405180910390fd5b600360008373ffffffffffffffffffffffffffffffffffffffff1673ffffffffffffffffffffffffffffffffffffffff168152602001908152602001600020549050919050565b610a1b611138565b73ffffffffffffffffffffffffffffffffffffffff16610a39610a9b565b73ffffffffffffffffffffffffffffffffffffffff1614610a8f576040517f08c379a0000000000000000000000000000000000000000000000000000000008152600401610a86906129fd565b60405180910390fd5b610a996000611551565b565b6000600660009054906101000a900473ffffffffffffffffffffffffffffffffffffffff16905090565b606060018054610ad490612ce9565b80601f0160208091040260200160405190810160405280929190818152602001828054610b0090612ce9565b8015610b4d5780601f10610b2257610100808354040283529160200191610b4d565b820191906000526020600020905b815481529060010190602001808311610b3057829003601f168201915b5050505050905090565b610b5f611138565b73ffffffffffffffffffffffffffffffffffffffff168273ffffffffffffffffffffffffffffffffffffffff161415610bcd576040517f08c379a0000000000000000000000000000000000000000000000000000000008152600401610bc49061291d565b60405180910390fd5b8060056000610bda611138565b73ffffffffffffffffffffffffffffffffffffffff1673ffffffffffffffffffffffffffffffffffffffff16815260200190815260200160002060008473ffffffffffffffffffffffffffffffffffffffff1673ffffffffffffffffffffffffffffffffffffffff16815260200190815260200160002060006101000a81548160ff0219169083151502179055508173ffffffffffffffffffffffffffffffffffffffff16610c87611138565b73ffffffffffffffffffffffffffffffffffffffff167f17307eab39ab6107e8899845ad3d59bd9653f200f220920489ca2b5937696c3183604051610ccc9190612860565b60405180910390a35050565b6000600860008681526020019081526020016000209050601481600601541115610d0157600080fd5b83816000018190555082816001018190555081816004018190555060018160060154610d2d9190612b78565b81600601819055504281600501819055505050505050565b610d56610d50611138565b83611217565b610d95576040517f08c379a0000000000000000000000000000000000000000000000000000000008152600401610d8c90612a7d565b60405180910390fd5b610da184848484611617565b50505050565b610daf611c0f565b600860008381526020019081526020016000206040518061012001604052908160008201548152602001600182015481526020016002820154815260200160038201548152602001600482015481526020016005820154815260200160068201548152602001600782015481526020016008820154815250509050919050565b6060610e3a826110cc565b610e79576040517f08c379a0000000000000000000000000000000000000000000000000000000008152600401610e7090612a3d565b60405180910390fd5b6000610e83611673565b90506000815111610ea35760405180602001604052806000815250610ece565b80610ead8461168a565b604051602001610ebe9291906127d5565b6040516020818303038152906040525b915050919050565b6000600560008473ffffffffffffffffffffffffffffffffffffffff1673ffffffffffffffffffffffffffffffffffffffff16815260200190815260200160002060008373ffffffffffffffffffffffffffffffffffffffff1673ffffffffffffffffffffffffffffffffffffffff16815260200190815260200160002060009054906101000a900460ff16905092915050565b610f72611138565b73ffffffffffffffffffffffffffffffffffffffff16610f90610a9b565b73ffffffffffffffffffffffffffffffffffffffff1614610fe6576040517f08c379a0000000000000000000000000000000000000000000000000000000008152600401610fdd906129fd565b60405180910390fd5b600073ffffffffffffffffffffffffffffffffffffffff168173ffffffffffffffffffffffffffffffffffffffff161415611056576040517f08c379a000000000000000000000000000000000000000000000000000000000815260040161104d906128bd565b60405180910390fd5b61105f81611551565b50565b60007f01ffc9a7000000000000000000000000000000000000000000000000000000007bffffffffffffffffffffffffffffffffffffffffffffffffffffffff1916827bffffffffffffffffffffffffffffffffffffffffffffffffffffffff1916149050919050565b60008073ffffffffffffffffffffffffffffffffffffffff166002600084815260200190815260200160002060009054906101000a900473ffffffffffffffffffffffffffffffffffffffff1673ffffffffffffffffffffffffffffffffffffffff1614159050919050565b600033905090565b816004600083815260200190815260200160002060006101000a81548173ffffffffffffffffffffffffffffffffffffffff021916908373ffffffffffffffffffffffffffffffffffffffff160217905550808273ffffffffffffffffffffffffffffffffffffffff166111b3836108a9565b73ffffffffffffffffffffffffffffffffffffffff167f8c5be1e5ebec7d5bd14f71427d1e84f3dd0314c0f7b2291e5b200ac8c7c3b92560405160405180910390a45050565b611213828260405180602001604052806000815250611837565b5050565b6000611222826110cc565b611261576040517f08c379a00000000000000000000000000000000000000000000000000000000081526004016112589061293d565b60405180910390fd5b600061126c836108a9565b90508073ffffffffffffffffffffffffffffffffffffffff168473ffffffffffffffffffffffffffffffffffffffff1614806112db57508373ffffffffffffffffffffffffffffffffffffffff166112c38461052e565b73ffffffffffffffffffffffffffffffffffffffff16145b806112ec57506112eb8185610ed6565b5b91505092915050565b8273ffffffffffffffffffffffffffffffffffffffff16611315826108a9565b73ffffffffffffffffffffffffffffffffffffffff161461136b576040517f08c379a000000000000000000000000000000000000000000000000000000000815260040161136290612a1d565b60405180910390fd5b600073ffffffffffffffffffffffffffffffffffffffff168273ffffffffffffffffffffffffffffffffffffffff1614156113db576040517f08c379a00000000000000000000000000000000000000000000000000000000081526004016113d2906128fd565b60405180910390fd5b6113e6838383611892565b6113f1600082611140565b6001600360008573ffffffffffffffffffffffffffffffffffffffff1673ffffffffffffffffffffffffffffffffffffffff16815260200190815260200160002060008282546114419190612bff565b925050819055506001600360008473ffffffffffffffffffffffffffffffffffffffff1673ffffffffffffffffffffffffffffffffffffffff16815260200190815260200160002060008282546114989190612b78565b92505081905550816002600083815260200190815260200160002060006101000a81548173ffffffffffffffffffffffffffffffffffffffff021916908373ffffffffffffffffffffffffffffffffffffffff160217905550808273ffffffffffffffffffffffffffffffffffffffff168473ffffffffffffffffffffffffffffffffffffffff167fddf252ad1be2c89b69c2b068fc378daa952ba7f163c4a11628f55a4df523b3ef60405160405180910390a4505050565b6000600660009054906101000a900473ffffffffffffffffffffffffffffffffffffffff16905081600660006101000a81548173ffffffffffffffffffffffffffffffffffffffff021916908373ffffffffffffffffffffffffffffffffffffffff1602179055508173ffffffffffffffffffffffffffffffffffffffff168173ffffffffffffffffffffffffffffffffffffffff167f8be0079c531659141344cd1fd0a4f28419497f9722a3daafe3b4186f6b6457e060405160405180910390a35050565b6116228484846112f5565b61162e84848484611897565b61166d576040517f08c379a00000000000000000000000000000000000000000000000000000000081526004016116649061289d565b60405180910390fd5b50505050565b606060405180602001604052806000815250905090565b606060008214156116d2576040518060400160405280600181526020017f30000000000000000000000000000000000000000000000000000000000000008152509050611832565b600082905060005b600082146117045780806116ed90612d1b565b915050600a826116fd9190612bce565b91506116da565b60008167ffffffffffffffff811115611746577f4e487b7100000000000000000000000000000000000000000000000000000000600052604160045260246000fd5b6040519080825280601f01601f1916602001820160405280156117785781602001600182028036833780820191505090505b5090505b6000851461182b576001826117919190612bff565b9150600a856117a09190612d64565b60306117ac9190612b78565b60f81b8183815181106117e8577f4e487b7100000000000000000000000000000000000000000000000000000000600052603260045260246000fd5b60200101907effffffffffffffffffffffffffffffffffffffffffffffffffffffffffffff1916908160001a905350600a856118249190612bce565b945061177c565b8093505050505b919050565b6118418383611a2e565b61184e6000848484611897565b61188d576040517f08c379a00000000000000000000000000000000000000000000000000000000081526004016118849061289d565b60405180910390fd5b505050565b505050565b60006118b88473ffffffffffffffffffffffffffffffffffffffff16611bfc565b15611a21578373ffffffffffffffffffffffffffffffffffffffff1663150b7a026118e1611138565b8786866040518563ffffffff1660e01b81526004016119039493929190612814565b602060405180830381600087803b15801561191d57600080fd5b505af192505050801561194e57506040513d601f19601f8201168201806040525081019061194b9190611efc565b60015b6119d1573d806000811461197e576040519150601f19603f3d011682016040523d82523d6000602084013e611983565b606091505b506000815114156119c9576040517f08c379a00000000000000000000000000000000000000000000000000000000081526004016119c09061289d565b60405180910390fd5b805181602001fd5b63150b7a0260e01b7bffffffffffffffffffffffffffffffffffffffffffffffffffffffff1916817bffffffffffffffffffffffffffffffffffffffffffffffffffffffff191614915050611a26565b600190505b949350505050565b600073ffffffffffffffffffffffffffffffffffffffff168273ffffffffffffffffffffffffffffffffffffffff161415611a9e576040517f08c379a0000000000000000000000000000000000000000000000000000000008152600401611a95906129bd565b60405180910390fd5b611aa7816110cc565b15611ae7576040517f08c379a0000000000000000000000000000000000000000000000000000000008152600401611ade906128dd565b60405180910390fd5b611af360008383611892565b6001600360008473ffffffffffffffffffffffffffffffffffffffff1673ffffffffffffffffffffffffffffffffffffffff1681526020019081526020016000206000828254611b439190612b78565b92505081905550816002600083815260200190815260200160002060006101000a81548173ffffffffffffffffffffffffffffffffffffffff021916908373ffffffffffffffffffffffffffffffffffffffff160217905550808273ffffffffffffffffffffffffffffffffffffffff16600073ffffffffffffffffffffffffffffffffffffffff167fddf252ad1be2c89b69c2b068fc378daa952ba7f163c4a11628f55a4df523b3ef60405160405180910390a45050565b600080823b905060008111915050919050565b6040518061012001604052806000815260200160008152602001600081526020016000815260200160008152602001600081526020016000815260200160008152602001600081525090565b6000611c6e611c6984612b05565b612ad4565b905082815260208101848484011115611c8657600080fd5b611c91848285612ca7565b509392505050565b600081359050611ca881612e62565b92915050565b600081359050611cbd81612e79565b92915050565b600081359050611cd281612e90565b92915050565b600081519050611ce781612e90565b92915050565b600082601f830112611cfe57600080fd5b8135611d0e848260208601611c5b565b91505092915050565b600081359050611d2681612ea7565b92915050565b600060208284031215611d3e57600080fd5b6000611d4c84828501611c99565b91505092915050565b60008060408385031215611d6857600080fd5b6000611d7685828601611c99565b9250506020611d8785828601611c99565b9150509250929050565b600080600060608486031215611da657600080fd5b6000611db486828701611c99565b9350506020611dc586828701611c99565b9250506040611dd686828701611d17565b9150509250925092565b60008060008060808587031215611df657600080fd5b6000611e0487828801611c99565b9450506020611e1587828801611c99565b9350506040611e2687828801611d17565b925050606085013567ffffffffffffffff811115611e4357600080fd5b611e4f87828801611ced565b91505092959194509250565b60008060408385031215611e6e57600080fd5b6000611e7c85828601611c99565b9250506020611e8d85828601611cae565b9150509250929050565b60008060408385031215611eaa57600080fd5b6000611eb885828601611c99565b9250506020611ec985828601611d17565b9150509250929050565b600060208284031215611ee557600080fd5b6000611ef384828501611cc3565b91505092915050565b600060208284031215611f0e57600080fd5b6000611f1c84828501611cd8565b91505092915050565b600060208284031215611f3757600080fd5b6000611f4584828501611d17565b91505092915050565b60008060008060808587031215611f6457600080fd5b6000611f7287828801611d17565b9450506020611f8387828801611d17565b9350506040611f9487828801611d17565b9250506060611fa587828801611d17565b91505092959194509250565b60008060008060008060008060006101208a8c031215611fd057600080fd5b6000611fde8c828d01611d17565b9950506020611fef8c828d01611d17565b98505060406120008c828d01611d17565b97505060606120118c828d01611d17565b96505060806120228c828d01611d17565b95505060a06120338c828d01611d17565b94505060c06120448c828d01611d17565b93505060e06120558c828d01611d17565b9250506101006120678c828d01611d17565b9150509295985092959850929598565b61208081612c33565b82525050565b61208f81612c45565b82525050565b60006120a082612b35565b6120aa8185612b4b565b93506120ba818560208601612cb6565b6120c381612e51565b840191505092915050565b60006120d982612b40565b6120e38185612b5c565b93506120f3818560208601612cb6565b6120fc81612e51565b840191505092915050565b600061211282612b40565b61211c8185612b6d565b935061212c818560208601612cb6565b80840191505092915050565b6000612145603283612b5c565b91507f4552433732313a207472616e7366657220746f206e6f6e20455243373231526560008301527f63656976657220696d706c656d656e74657200000000000000000000000000006020830152604082019050919050565b60006121ab602683612b5c565b91507f4f776e61626c653a206e6577206f776e657220697320746865207a65726f206160008301527f64647265737300000000000000000000000000000000000000000000000000006020830152604082019050919050565b6000612211601c83612b5c565b91507f4552433732313a20746f6b656e20616c7265616479206d696e746564000000006000830152602082019050919050565b6000612251602483612b5c565b91507f4552433732313a207472616e7366657220746f20746865207a65726f2061646460008301527f72657373000000000000000000000000000000000000000000000000000000006020830152604082019050919050565b60006122b7601983612b5c565b91507f4552433732313a20617070726f766520746f2063616c6c6572000000000000006000830152602082019050919050565b60006122f7602c83612b5c565b91507f4552433732313a206f70657261746f7220717565727920666f72206e6f6e657860008301527f697374656e7420746f6b656e00000000000000000000000000000000000000006020830152604082019050919050565b600061235d603883612b5c565b91507f4552433732313a20617070726f76652063616c6c6572206973206e6f74206f7760008301527f6e6572206e6f7220617070726f76656420666f7220616c6c00000000000000006020830152604082019050919050565b60006123c3602a83612b5c565b91507f4552433732313a2062616c616e636520717565727920666f7220746865207a6560008301527f726f2061646472657373000000000000000000000000000000000000000000006020830152604082019050919050565b6000612429602983612b5c565b91507f4552433732313a206f776e657220717565727920666f72206e6f6e657869737460008301527f656e7420746f6b656e00000000000000000000000000000000000000000000006020830152604082019050919050565b600061248f602083612b5c565b91507f4552433732313a206d696e7420746f20746865207a65726f20616464726573736000830152602082019050919050565b60006124cf602c83612b5c565b91507f4552433732313a20617070726f76656420717565727920666f72206e6f6e657860008301527f697374656e7420746f6b656e00000000000000000000000000000000000000006020830152604082019050919050565b6000612535602083612b5c565b91507f4f776e61626c653a2063616c6c6572206973206e6f7420746865206f776e65726000830152602082019050919050565b6000612575602983612b5c565b91507f4552433732313a207472616e73666572206f6620746f6b656e2074686174206960008301527f73206e6f74206f776e00000000000000000000000000000000000000000000006020830152604082019050919050565b60006125db602f83612b5c565b91507f4552433732314d657461646174613a2055524920717565727920666f72206e6f60008301527f6e6578697374656e7420746f6b656e00000000000000000000000000000000006020830152604082019050919050565b6000612641602183612b5c565b91507f4552433732313a20617070726f76616c20746f2063757272656e74206f776e6560008301527f72000000000000000000000000000000000000000000000000000000000000006020830152604082019050919050565b60006126a7603183612b5c565b91507f4552433732313a207472616e736665722063616c6c6572206973206e6f74206f60008301527f776e6572206e6f7220617070726f7665640000000000000000000000000000006020830152604082019050919050565b6101208201600082015161271760008501826127b7565b50602082015161272a60208501826127b7565b50604082015161273d60408501826127b7565b50606082015161275060608501826127b7565b50608082015161276360808501826127b7565b5060a082015161277660a08501826127b7565b5060c082015161278960c08501826127b7565b5060e082015161279c60e08501826127b7565b506101008201516127b16101008501826127b7565b50505050565b6127c081612c9d565b82525050565b6127cf81612c9d565b82525050565b60006127e18285612107565b91506127ed8284612107565b91508190509392505050565b600060208201905061280e6000830184612077565b92915050565b60006080820190506128296000830187612077565b6128366020830186612077565b61284360408301856127c6565b81810360608301526128558184612095565b905095945050505050565b60006020820190506128756000830184612086565b92915050565b6000602082019050818103600083015261289581846120ce565b905092915050565b600060208201905081810360008301526128b681612138565b9050919050565b600060208201905081810360008301526128d68161219e565b9050919050565b600060208201905081810360008301526128f681612204565b9050919050565b6000602082019050818103600083015261291681612244565b9050919050565b60006020820190508181036000830152612936816122aa565b9050919050565b60006020820190508181036000830152612956816122ea565b9050919050565b6000602082019050818103600083015261297681612350565b9050919050565b60006020820190508181036000830152612996816123b6565b9050919050565b600060208201905081810360008301526129b68161241c565b9050919050565b600060208201905081810360008301526129d681612482565b9050919050565b600060208201905081810360008301526129f6816124c2565b9050919050565b60006020820190508181036000830152612a1681612528565b9050919050565b60006020820190508181036000830152612a3681612568565b9050919050565b60006020820190508181036000830152612a56816125ce565b9050919050565b60006020820190508181036000830152612a7681612634565b9050919050565b60006020820190508181036000830152612a968161269a565b9050919050565b600061012082019050612ab36000830184612700565b92915050565b6000602082019050612ace60008301846127c6565b92915050565b6000604051905081810181811067ffffffffffffffff82111715612afb57612afa612e22565b5b8060405250919050565b600067ffffffffffffffff821115612b2057612b1f612e22565b5b601f19601f8301169050602081019050919050565b600081519050919050565b600081519050919050565b600082825260208201905092915050565b600082825260208201905092915050565b600081905092915050565b6000612b8382612c9d565b9150612b8e83612c9d565b9250827fffffffffffffffffffffffffffffffffffffffffffffffffffffffffffffffff03821115612bc357612bc2612d95565b5b828201905092915050565b6000612bd982612c9d565b9150612be483612c9d565b925082612bf457612bf3612dc4565b5b828204905092915050565b6000612c0a82612c9d565b9150612c1583612c9d565b925082821015612c2857612c27612d95565b5b828203905092915050565b6000612c3e82612c7d565b9050919050565b60008115159050919050565b60007fffffffff0000000000000000000000000000000000000000000000000000000082169050919050565b600073ffffffffffffffffffffffffffffffffffffffff82169050919050565b6000819050919050565b82818337600083830152505050565b60005b83811015612cd4578082015181840152602081019050612cb9565b83811115612ce3576000848401525b50505050565b60006002820490506001821680612d0157607f821691505b60208210811415612d1557612d14612df3565b5b50919050565b6000612d2682612c9d565b91507fffffffffffffffffffffffffffffffffffffffffffffffffffffffffffffffff821415612d5957612d58612d95565b5b600182019050919050565b6000612d6f82612c9d565b9150612d7a83612c9d565b925082612d8a57612d89612dc4565b5b828206905092915050565b7f4e487b7100000000000000000000000000000000000000000000000000000000600052601160045260246000fd5b7f4e487b7100000000000000000000000000000000000000000000000000000000600052601260045260246000fd5b7f4e487b7100000000000000000000000000000000000000000000000000000000600052602260045260246000fd5b7f4e487b7100000000000000000000000000000000000000000000000000000000600052604160045260246000fd5b6000601f19601f8301169050919050565b612e6b81612c33565b8114612e7657600080fd5b50565b612e8281612c45565b8114612e8d57600080fd5b50565b612e9981612c51565b8114612ea457600080fd5b50565b612eb081612c9d565b8114612ebb57600080fd5b5056fea26469706673582212208d2b2770d49f31ae8e6ac0b0a4c0e2496bf227b03a1c6fc8eac23af6ab93527c64736f6c63430008000033",
  "immutableReferences": {},
  "source": "// SPDX-License-Identifier: MIT\npragma solidity >=0.4.22 <0.9.0;\n\nimport \"../node_modules/@openzeppelin/contracts/token/ERC721/ERC721.sol\";\nimport \"../node_modules/@openzeppelin/contracts/access/Ownable.sol\";\n\ncontract Token is ERC721, Ownable {\n  struct Athlete {\n    uint256 id;\n    uint256 caloriesBurned;\n    uint256 weight;\n    uint256 height;\n    uint256 distanceTravelled;\n    uint256 lastStreak;\n    uint256 stage;\n    uint256 parentOne;\n    uint256 parentTwo;\n  }\n\n  uint nextId = 0;\n\n  mapping(uint256 => Athlete) _athleteDetails;\n\n  constructor(string memory name, string memory symbol) ERC721(name, symbol) {\n\n  }\n\n  function getTokenDetails(uint256 tokenId) public view returns (Athlete memory) {\n    return _athleteDetails[tokenId];\n  }\n\n  function mint(uint256 id, uint256 caloriesBurned, uint256 weight, uint256 height, uint256 distanceTravelled, uint256 lastStreak, uint256 stage, uint256 p1, uint256 p2) public onlyOwner {\n    _athleteDetails[nextId] = Athlete(id, caloriesBurned, weight, height, distanceTravelled, lastStreak, stage, p1, p2);\n    _safeMint(msg.sender, nextId);\n    nextId++;\n  }\n\n  function workout(uint256 tokenId, uint256 id, uint burned, uint distance) public {\n    Athlete storage athlete = _athleteDetails[tokenId];\n    require(athlete.stage <= 20);\n    athlete.id = id;\n    athlete.caloriesBurned = burned;\n    athlete.distanceTravelled = distance;\n    athlete.stage = athlete.stage + 1;\n    athlete.lastStreak = block.timestamp;\n  }\n}",
  "sourcePath": "/Users/bharath/sourcecode/HackZurich/nft/contracts/Token.sol",
  "compiler": {
    "name": "solc",
    "version": "0.8.0+commit.c7dfd78e.Emscripten.clang"
  },
  "schemaVersion": "3.4.3",
  "updatedAt": "2021-09-26T03:15:27.709Z",
  "networkType": "ethereum",
  "devdoc": {
    "kind": "dev",
    "methods": {
      "approve(address,uint256)": {
        "details": "See {IERC721-approve}."
      },
      "balanceOf(address)": {
        "details": "See {IERC721-balanceOf}."
      },
      "getApproved(uint256)": {
        "details": "See {IERC721-getApproved}."
      },
      "isApprovedForAll(address,address)": {
        "details": "See {IERC721-isApprovedForAll}."
      },
      "name()": {
        "details": "See {IERC721Metadata-name}."
      },
      "owner()": {
        "details": "Returns the address of the current owner."
      },
      "ownerOf(uint256)": {
        "details": "See {IERC721-ownerOf}."
      },
      "renounceOwnership()": {
        "details": "Leaves the contract without owner. It will not be possible to call `onlyOwner` functions anymore. Can only be called by the current owner. NOTE: Renouncing ownership will leave the contract without an owner, thereby removing any functionality that is only available to the owner."
      },
      "safeTransferFrom(address,address,uint256)": {
        "details": "See {IERC721-safeTransferFrom}."
      },
      "safeTransferFrom(address,address,uint256,bytes)": {
        "details": "See {IERC721-safeTransferFrom}."
      },
      "setApprovalForAll(address,bool)": {
        "details": "See {IERC721-setApprovalForAll}."
      },
      "supportsInterface(bytes4)": {
        "details": "See {IERC165-supportsInterface}."
      },
      "symbol()": {
        "details": "See {IERC721Metadata-symbol}."
      },
      "tokenURI(uint256)": {
        "details": "See {IERC721Metadata-tokenURI}."
      },
      "transferFrom(address,address,uint256)": {
        "details": "See {IERC721-transferFrom}."
      },
      "transferOwnership(address)": {
        "details": "Transfers ownership of the contract to a new account (`newOwner`). Can only be called by the current owner."
      }
    },
    "version": 1
  },
  "userdoc": {
    "kind": "user",
    "methods": {},
    "version": 1
  }
}